{
  "_format": "hh-sol-artifact-1",
  "contractName": "Library",
  "sourceName": "contracts/Library.sol",
  "abi": [
    {
      "anonymous": false,
      "inputs": [
        {
          "indexed": true,
          "internalType": "address",
          "name": "previousOwner",
          "type": "address"
        },
        {
          "indexed": true,
          "internalType": "address",
          "name": "newOwner",
          "type": "address"
        }
      ],
      "name": "OwnershipTransferred",
      "type": "event"
    },
    {
      "stateMutability": "payable",
      "type": "fallback"
    },
    {
      "inputs": [],
      "name": "LibraryToken",
      "outputs": [
        {
          "internalType": "contract LibToken",
          "name": "",
          "type": "address"
        }
      ],
      "stateMutability": "view",
      "type": "function"
    },
    {
      "inputs": [
        {
          "internalType": "uint256",
          "name": "_id",
          "type": "uint256"
        },
        {
          "internalType": "uint256",
          "name": "_quantity",
          "type": "uint256"
        }
      ],
      "name": "addBooks",
      "outputs": [],
      "stateMutability": "nonpayable",
      "type": "function"
    },
    {
      "inputs": [
        {
          "internalType": "uint256",
          "name": "",
          "type": "uint256"
        }
      ],
      "name": "books",
      "outputs": [
        {
          "internalType": "uint256",
          "name": "",
          "type": "uint256"
        }
      ],
      "stateMutability": "view",
      "type": "function"
    },
    {
      "inputs": [
        {
          "internalType": "uint256",
          "name": "_id",
          "type": "uint256"
        }
      ],
      "name": "buyBook",
      "outputs": [],
      "stateMutability": "payable",
      "type": "function"
    },
    {
      "inputs": [
        {
          "internalType": "uint256",
          "name": "_id",
          "type": "uint256"
        }
      ],
      "name": "clientAddress",
      "outputs": [
        {
          "internalType": "address",
          "name": "",
          "type": "address"
        }
      ],
      "stateMutability": "view",
      "type": "function"
    },
    {
      "inputs": [
        {
          "internalType": "address",
          "name": "",
          "type": "address"
        },
        {
          "internalType": "uint256",
          "name": "",
          "type": "uint256"
        }
      ],
      "name": "clientPurchases",
      "outputs": [
        {
          "internalType": "uint256",
          "name": "quantity",
          "type": "uint256"
        },
        {
          "internalType": "uint256",
          "name": "blockNumber",
          "type": "uint256"
        },
        {
          "internalType": "address",
          "name": "clientAddress",
          "type": "address"
        }
      ],
      "stateMutability": "view",
      "type": "function"
    },
    {
      "inputs": [
        {
          "internalType": "uint256",
          "name": "",
          "type": "uint256"
        }
      ],
      "name": "clients",
      "outputs": [
        {
          "internalType": "address",
          "name": "",
          "type": "address"
        }
      ],
      "stateMutability": "view",
      "type": "function"
    },
    {
      "inputs": [
        {
          "internalType": "uint256",
          "name": "_id",
          "type": "uint256"
        }
      ],
      "name": "listBookQuantity",
      "outputs": [
        {
          "internalType": "uint256",
          "name": "",
          "type": "uint256"
        }
      ],
      "stateMutability": "view",
      "type": "function"
    },
    {
      "inputs": [
        {
          "internalType": "address",
          "name": "_client",
          "type": "address"
        },
        {
          "internalType": "uint256",
          "name": "_id",
          "type": "uint256"
        }
      ],
      "name": "listClientBooks",
      "outputs": [
        {
          "internalType": "uint256",
          "name": "",
          "type": "uint256"
        }
      ],
      "stateMutability": "view",
      "type": "function"
    },
    {
      "inputs": [],
      "name": "mintLIB",
      "outputs": [],
      "stateMutability": "payable",
      "type": "function"
    },
    {
      "inputs": [],
      "name": "numberOfClients",
      "outputs": [
        {
          "internalType": "uint256",
          "name": "",
          "type": "uint256"
        }
      ],
      "stateMutability": "view",
      "type": "function"
    },
    {
      "inputs": [],
      "name": "owner",
      "outputs": [
        {
          "internalType": "address",
          "name": "",
          "type": "address"
        }
      ],
      "stateMutability": "view",
      "type": "function"
    },
    {
      "inputs": [
        {
          "internalType": "address",
          "name": "",
          "type": "address"
        }
      ],
      "name": "paidFee",
      "outputs": [
        {
          "internalType": "bool",
          "name": "",
          "type": "bool"
        }
      ],
      "stateMutability": "view",
      "type": "function"
    },
    {
      "inputs": [],
      "name": "payFee",
      "outputs": [],
      "stateMutability": "payable",
      "type": "function"
    },
    {
      "inputs": [],
      "name": "renounceOwnership",
      "outputs": [],
      "stateMutability": "nonpayable",
      "type": "function"
    },
    {
      "inputs": [
        {
          "internalType": "uint256",
          "name": "_id",
          "type": "uint256"
        }
      ],
      "name": "returnBook",
      "outputs": [],
      "stateMutability": "payable",
      "type": "function"
    },
    {
      "inputs": [
        {
          "internalType": "address",
          "name": "newOwner",
          "type": "address"
        }
      ],
      "name": "transferOwnership",
      "outputs": [],
      "stateMutability": "nonpayable",
      "type": "function"
    },
    {
      "inputs": [
        {
          "internalType": "uint256",
          "name": "value",
          "type": "uint256"
        }
      ],
      "name": "withdraw",
      "outputs": [],
      "stateMutability": "payable",
      "type": "function"
    },
    {
      "stateMutability": "payable",
      "type": "receive"
    }
  ],
  "bytecode": "0x6080604052600060065534801561001557600080fd5b5061003261002761003760201b60201c565b61003f60201b60201c565b610103565b600033905090565b60008060009054906101000a900473ffffffffffffffffffffffffffffffffffffffff169050816000806101000a81548173ffffffffffffffffffffffffffffffffffffffff021916908373ffffffffffffffffffffffffffffffffffffffff1602179055508173ffffffffffffffffffffffffffffffffffffffff168173ffffffffffffffffffffffffffffffffffffffff167f8be0079c531659141344cd1fd0a4f28419497f9722a3daafe3b4186f6b6457e060405160405180910390a35050565b611c13806101126000396000f3fe60806040526004361061010d5760003560e01c80636874404611610095578063b795f2db11610064578063b795f2db1461033b578063ca5140c914610366578063ecc86d1814610382578063f2fde38b146103bf578063f88af21d146103e85761011c565b806368744046146102a05780636ee26566146102dd578063715018a6146102f95780638da5cb5b146103105761011c565b80632cecb1f1116100dc5780632cecb1f1146101c35780632e1a7d4d146102005780633bbc52ad1461021c5780634fd7891514610226578063591a726f146102635761011c565b8063142013af146101265780631fbda78f1461014f578063296102521461017a5780632ad2ba7c146101845761011c565b3661011c5761011a610425565b005b610124610425565b005b34801561013257600080fd5b5061014d600480360381019061014891906113f2565b6105c5565b005b34801561015b57600080fd5b5061016461066f565b6040516101719190611627565b60405180910390f35b610182610425565b005b34801561019057600080fd5b506101ab60048036038101906101a6919061138d565b610695565b6040516101ba9392919061179d565b60405180910390f35b3480156101cf57600080fd5b506101ea60048036038101906101e591906113c9565b6106ec565b6040516101f79190611782565b60405180910390f35b61021a600480360381019061021591906113c9565b610709565b005b6102246107cf565b005b34801561023257600080fd5b5061024d600480360381019061024891906113c9565b610919565b60405161025a91906115c8565b60405180910390f35b34801561026f57600080fd5b5061028a60048036038101906102859190611364565b610956565b604051610297919061160c565b60405180910390f35b3480156102ac57600080fd5b506102c760048036038101906102c291906113c9565b610976565b6040516102d49190611782565b60405180910390f35b6102f760048036038101906102f291906113c9565b61098e565b005b34801561030557600080fd5b5061030e610dc6565b005b34801561031c57600080fd5b50610325610e4e565b60405161033291906115c8565b60405180910390f35b34801561034757600080fd5b50610350610e77565b60405161035d9190611782565b60405180910390f35b610380600480360381019061037b91906113c9565b610e81565b005b34801561038e57600080fd5b506103a960048036038101906103a4919061138d565b6110e5565b6040516103b69190611782565b60405180910390f35b3480156103cb57600080fd5b506103e660048036038101906103e19190611364565b611143565b005b3480156103f457600080fd5b5061040f600480360381019061040a91906113c9565b61123b565b60405161041c91906115c8565b60405180910390f35b61042d610e4e565b73ffffffffffffffffffffffffffffffffffffffff163373ffffffffffffffffffffffffffffffffffffffff16141561049b576040517f08c379a0000000000000000000000000000000000000000000000000000000008152600401610492906116a2565b60405180910390fd5b600034116104de576040517f08c379a00000000000000000000000000000000000000000000000000000000081526004016104d590611702565b60405180910390fd5b6001600560003373ffffffffffffffffffffffffffffffffffffffff1673ffffffffffffffffffffffffffffffffffffffff16815260200190815260200160002060006101000a81548160ff021916908315150217905550600160009054906101000a900473ffffffffffffffffffffffffffffffffffffffff1673ffffffffffffffffffffffffffffffffffffffff166342966c68346040518263ffffffff1660e01b81526004016105919190611782565b600060405180830381600087803b1580156105ab57600080fd5b505af11580156105bf573d6000803e3d6000fd5b50505050565b6105cd61126e565b73ffffffffffffffffffffffffffffffffffffffff166105eb610e4e565b73ffffffffffffffffffffffffffffffffffffffff1614610641576040517f08c379a000000000000000000000000000000000000000000000000000000000815260040161063890611722565b60405180910390fd5b8060026000848152602001908152602001600020600082825461066491906117e5565b925050819055505050565b600160009054906101000a900473ffffffffffffffffffffffffffffffffffffffff1681565b6003602052816000526040600020602052806000526040600020600091509150508060000154908060010154908060020160009054906101000a900473ffffffffffffffffffffffffffffffffffffffff16905083565b600060026000838152602001908152602001600020549050919050565b61071161126e565b73ffffffffffffffffffffffffffffffffffffffff1661072f610e4e565b73ffffffffffffffffffffffffffffffffffffffff1614610785576040517f08c379a000000000000000000000000000000000000000000000000000000000815260040161077c90611722565b60405180910390fd5b3373ffffffffffffffffffffffffffffffffffffffff166108fc829081150290604051600060405180830381858888f193505050501580156107cb573d6000803e3d6000fd5b5050565b6107d7610e4e565b73ffffffffffffffffffffffffffffffffffffffff163373ffffffffffffffffffffffffffffffffffffffff161415610845576040517f08c379a000000000000000000000000000000000000000000000000000000000815260040161083c906116a2565b60405180910390fd5b60003411610888576040517f08c379a000000000000000000000000000000000000000000000000000000000815260040161087f90611642565b60405180910390fd5b600160009054906101000a900473ffffffffffffffffffffffffffffffffffffffff1673ffffffffffffffffffffffffffffffffffffffff166340c10f1933346040518363ffffffff1660e01b81526004016108e59291906115e3565b600060405180830381600087803b1580156108ff57600080fd5b505af1158015610913573d6000803e3d6000fd5b50505050565b60006004600083815260200190815260200160002060009054906101000a900473ffffffffffffffffffffffffffffffffffffffff169050919050565b60056020528060005260406000206000915054906101000a900460ff1681565b60026020528060005260406000206000915090505481565b610996610e4e565b73ffffffffffffffffffffffffffffffffffffffff163373ffffffffffffffffffffffffffffffffffffffff161415610a04576040517f08c379a00000000000000000000000000000000000000000000000000000000081526004016109fb906116a2565b60405180910390fd5b6000600260008381526020019081526020016000205411610a5a576040517f08c379a0000000000000000000000000000000000000000000000000000000008152600401610a51906116e2565b60405180910390fd5b6000600360003373ffffffffffffffffffffffffffffffffffffffff1673ffffffffffffffffffffffffffffffffffffffff16815260200190815260200160002060008381526020019081526020016000206000015414610af0576040517f08c379a0000000000000000000000000000000000000000000000000000000008152600401610ae790611662565b60405180910390fd5b60011515600560003373ffffffffffffffffffffffffffffffffffffffff1673ffffffffffffffffffffffffffffffffffffffff16815260200190815260200160002060009054906101000a900460ff16151514610b83576040517f08c379a0000000000000000000000000000000000000000000000000000000008152600401610b7a90611742565b60405180910390fd5b600360003373ffffffffffffffffffffffffffffffffffffffff1673ffffffffffffffffffffffffffffffffffffffff16815260200190815260200160002060008281526020019081526020016000206000016000815480929190610be790611905565b919050555043600360003373ffffffffffffffffffffffffffffffffffffffff1673ffffffffffffffffffffffffffffffffffffffff16815260200190815260200160002060008381526020019081526020016000206001018190555033600360003373ffffffffffffffffffffffffffffffffffffffff1673ffffffffffffffffffffffffffffffffffffffff168152602001908152602001600020600083815260200190815260200160002060020160006101000a81548173ffffffffffffffffffffffffffffffffffffffff021916908373ffffffffffffffffffffffffffffffffffffffff160217905550600260008281526020019081526020016000206000815480929190610cfa906118db565b91905055503360046000600654815260200190815260200160002060006101000a81548173ffffffffffffffffffffffffffffffffffffffff021916908373ffffffffffffffffffffffffffffffffffffffff16021790555060066000815480929190610d6690611905565b91905055506000600560003373ffffffffffffffffffffffffffffffffffffffff1673ffffffffffffffffffffffffffffffffffffffff16815260200190815260200160002060006101000a81548160ff02191690831515021790555050565b610dce61126e565b73ffffffffffffffffffffffffffffffffffffffff16610dec610e4e565b73ffffffffffffffffffffffffffffffffffffffff1614610e42576040517f08c379a0000000000000000000000000000000000000000000000000000000008152600401610e3990611722565b60405180910390fd5b610e4c6000611276565b565b60008060009054906101000a900473ffffffffffffffffffffffffffffffffffffffff16905090565b6000600654905090565b610e89610e4e565b73ffffffffffffffffffffffffffffffffffffffff163373ffffffffffffffffffffffffffffffffffffffff161415610ef7576040517f08c379a0000000000000000000000000000000000000000000000000000000008152600401610eee906116a2565b60405180910390fd5b6000600360003373ffffffffffffffffffffffffffffffffffffffff1673ffffffffffffffffffffffffffffffffffffffff16815260200190815260200160002060008381526020019081526020016000206000015411610f8d576040517f08c379a0000000000000000000000000000000000000000000000000000000008152600401610f8490611762565b60405180910390fd5b6064600360003373ffffffffffffffffffffffffffffffffffffffff1673ffffffffffffffffffffffffffffffffffffffff16815260200190815260200160002060008381526020019081526020016000206001015443610fee919061183b565b111561102f576040517f08c379a0000000000000000000000000000000000000000000000000000000008152600401611026906116c2565b60405180910390fd5b600360003373ffffffffffffffffffffffffffffffffffffffff1673ffffffffffffffffffffffffffffffffffffffff168152602001908152602001600020600082815260200190815260200160002060008082016000905560018201600090556002820160006101000a81549073ffffffffffffffffffffffffffffffffffffffff021916905550506002600082815260200190815260200160002060008154809291906110dd90611905565b919050555050565b6000600360008473ffffffffffffffffffffffffffffffffffffffff1673ffffffffffffffffffffffffffffffffffffffff168152602001908152602001600020600083815260200190815260200160002060000154905092915050565b61114b61126e565b73ffffffffffffffffffffffffffffffffffffffff16611169610e4e565b73ffffffffffffffffffffffffffffffffffffffff16146111bf576040517f08c379a00000000000000000000000000000000000000000000000000000000081526004016111b690611722565b60405180910390fd5b600073ffffffffffffffffffffffffffffffffffffffff168173ffffffffffffffffffffffffffffffffffffffff16141561122f576040517f08c379a000000000000000000000000000000000000000000000000000000000815260040161122690611682565b60405180910390fd5b61123881611276565b50565b60046020528060005260406000206000915054906101000a900473ffffffffffffffffffffffffffffffffffffffff1681565b600033905090565b60008060009054906101000a900473ffffffffffffffffffffffffffffffffffffffff169050816000806101000a81548173ffffffffffffffffffffffffffffffffffffffff021916908373ffffffffffffffffffffffffffffffffffffffff1602179055508173ffffffffffffffffffffffffffffffffffffffff168173ffffffffffffffffffffffffffffffffffffffff167f8be0079c531659141344cd1fd0a4f28419497f9722a3daafe3b4186f6b6457e060405160405180910390a35050565b60008135905061134981611baf565b92915050565b60008135905061135e81611bc6565b92915050565b60006020828403121561137657600080fd5b60006113848482850161133a565b91505092915050565b600080604083850312156113a057600080fd5b60006113ae8582860161133a565b92505060206113bf8582860161134f565b9150509250929050565b6000602082840312156113db57600080fd5b60006113e98482850161134f565b91505092915050565b6000806040838503121561140557600080fd5b60006114138582860161134f565b92505060206114248582860161134f565b9150509250929050565b6114378161186f565b82525050565b61144681611881565b82525050565b611455816118b7565b82525050565b6000611468601c836117d4565b91506114738261197d565b602082019050919050565b600061148b6032836117d4565b9150611496826119a6565b604082019050919050565b60006114ae6026836117d4565b91506114b9826119f5565b604082019050919050565b60006114d1602f836117d4565b91506114dc82611a44565b604082019050919050565b60006114f4601f836117d4565b91506114ff82611a93565b602082019050919050565b60006115176019836117d4565b915061152282611abc565b602082019050919050565b600061153a6022836117d4565b915061154582611ae5565b604082019050919050565b600061155d6020836117d4565b915061156882611b34565b602082019050919050565b6000611580601f836117d4565b915061158b82611b5d565b602082019050919050565b60006115a36012836117d4565b91506115ae82611b86565b602082019050919050565b6115c2816118ad565b82525050565b60006020820190506115dd600083018461142e565b92915050565b60006040820190506115f8600083018561142e565b61160560208301846115b9565b9392505050565b6000602082019050611621600083018461143d565b92915050565b600060208201905061163c600083018461144c565b92915050565b6000602082019050818103600083015261165b8161145b565b9050919050565b6000602082019050818103600083015261167b8161147e565b9050919050565b6000602082019050818103600083015261169b816114a1565b9050919050565b600060208201905081810360008301526116bb816114c4565b9050919050565b600060208201905081810360008301526116db816114e7565b9050919050565b600060208201905081810360008301526116fb8161150a565b9050919050565b6000602082019050818103600083015261171b8161152d565b9050919050565b6000602082019050818103600083015261173b81611550565b9050919050565b6000602082019050818103600083015261175b81611573565b9050919050565b6000602082019050818103600083015261177b81611596565b9050919050565b600060208201905061179760008301846115b9565b92915050565b60006060820190506117b260008301866115b9565b6117bf60208301856115b9565b6117cc604083018461142e565b949350505050565b600082825260208201905092915050565b60006117f0826118ad565b91506117fb836118ad565b9250827fffffffffffffffffffffffffffffffffffffffffffffffffffffffffffffffff038211156118305761182f61194e565b5b828201905092915050565b6000611846826118ad565b9150611851836118ad565b9250828210156118645761186361194e565b5b828203905092915050565b600061187a8261188d565b9050919050565b60008115159050919050565b600073ffffffffffffffffffffffffffffffffffffffff82169050919050565b6000819050919050565b60006118c2826118c9565b9050919050565b60006118d48261188d565b9050919050565b60006118e6826118ad565b915060008214156118fa576118f961194e565b5b600182039050919050565b6000611910826118ad565b91507fffffffffffffffffffffffffffffffffffffffffffffffffffffffffffffffff8214156119435761194261194e565b5b600182019050919050565b7f4e487b7100000000000000000000000000000000000000000000000000000000600052601160045260246000fd5b7f5468657265206d757374206265206174206c6561737420312077656900000000600082015250565b7f596f752063616e27742068617665206d6f7265207468616e206f6e6520626f6f60008201527f6b206f66207468652073616d6520747970650000000000000000000000000000602082015250565b7f4f776e61626c653a206e6577206f776e657220697320746865207a65726f206160008201527f6464726573730000000000000000000000000000000000000000000000000000602082015250565b7f54686973206f7065726174696f6e2063616e206265206578656375746564206f60008201527f6e6c79206279206120636c69656e740000000000000000000000000000000000602082015250565b7f596f75206d6973736564207468652072657475726e696e6720706572696f6400600082015250565b7f5468697320626f6f6b206973206f7574206f662073746f636b00000000000000600082015250565b7f596f7520646964206e6f74207061792074686520666565206f6620302e31204c60008201527f4942000000000000000000000000000000000000000000000000000000000000602082015250565b7f4f776e61626c653a2063616c6c6572206973206e6f7420746865206f776e6572600082015250565b7f596f75206d757374207061792074686520666565206f6620302e31204c494200600082015250565b7f4e6f206974656d7320746f2072657475726e0000000000000000000000000000600082015250565b611bb88161186f565b8114611bc357600080fd5b50565b611bcf816118ad565b8114611bda57600080fd5b5056fea26469706673582212202dcd5cf1f09ced3ee0cb86d6a69ffa74ed17177dcaab11fb602c042b26e30bb664736f6c63430008040033",
  "linkReferences": {},
  "deployedLinkReferences": {}
}