{
  "_format": "hh-sol-artifact-1",
  "contractName": "Library",
  "sourceName": "contracts/Library.sol",
  "abi": [
    {
      "anonymous": false,
      "inputs": [
        {
          "indexed": true,
          "internalType": "address",
          "name": "previousOwner",
          "type": "address"
        },
        {
          "indexed": true,
          "internalType": "address",
          "name": "newOwner",
          "type": "address"
        }
      ],
      "name": "OwnershipTransferred",
      "type": "event"
    },
    {
      "inputs": [
        {
          "internalType": "uint256",
          "name": "_id",
          "type": "uint256"
        },
        {
          "internalType": "uint256",
          "name": "_quantity",
          "type": "uint256"
        }
      ],
      "name": "addBooks",
      "outputs": [],
      "stateMutability": "nonpayable",
      "type": "function"
    },
    {
      "inputs": [
        {
          "internalType": "uint256",
          "name": "",
          "type": "uint256"
        }
      ],
      "name": "books",
      "outputs": [
        {
          "internalType": "uint256",
          "name": "",
          "type": "uint256"
        }
      ],
      "stateMutability": "view",
      "type": "function"
    },
    {
      "inputs": [
        {
          "internalType": "uint256",
          "name": "_id",
          "type": "uint256"
        }
      ],
      "name": "buyBook",
      "outputs": [],
      "stateMutability": "nonpayable",
      "type": "function"
    },
    {
      "inputs": [
        {
          "internalType": "uint256",
          "name": "_id",
          "type": "uint256"
        }
      ],
      "name": "clientAddress",
      "outputs": [
        {
          "internalType": "address",
          "name": "",
          "type": "address"
        }
      ],
      "stateMutability": "view",
      "type": "function"
    },
    {
      "inputs": [
        {
          "internalType": "address",
          "name": "",
          "type": "address"
        },
        {
          "internalType": "uint256",
          "name": "",
          "type": "uint256"
        }
      ],
      "name": "clientPurchases",
      "outputs": [
        {
          "internalType": "uint256",
          "name": "quantity",
          "type": "uint256"
        },
        {
          "internalType": "uint256",
          "name": "blockNumber",
          "type": "uint256"
        },
        {
          "internalType": "address",
          "name": "clientAddress",
          "type": "address"
        }
      ],
      "stateMutability": "view",
      "type": "function"
    },
    {
      "inputs": [
        {
          "internalType": "uint256",
          "name": "",
          "type": "uint256"
        }
      ],
      "name": "clients",
      "outputs": [
        {
          "internalType": "address",
          "name": "",
          "type": "address"
        }
      ],
      "stateMutability": "view",
      "type": "function"
    },
    {
      "inputs": [
        {
          "internalType": "uint256",
          "name": "_id",
          "type": "uint256"
        }
      ],
      "name": "listBookQuantity",
      "outputs": [
        {
          "internalType": "uint256",
          "name": "",
          "type": "uint256"
        }
      ],
      "stateMutability": "view",
      "type": "function"
    },
    {
      "inputs": [
        {
          "internalType": "address",
          "name": "_client",
          "type": "address"
        },
        {
          "internalType": "uint256",
          "name": "_id",
          "type": "uint256"
        }
      ],
      "name": "listClientBooks",
      "outputs": [
        {
          "internalType": "uint256",
          "name": "",
          "type": "uint256"
        }
      ],
      "stateMutability": "view",
      "type": "function"
    },
    {
      "inputs": [],
      "name": "numberOfClients",
      "outputs": [
        {
          "internalType": "uint256",
          "name": "",
          "type": "uint256"
        }
      ],
      "stateMutability": "view",
      "type": "function"
    },
    {
      "inputs": [],
      "name": "owner",
      "outputs": [
        {
          "internalType": "address",
          "name": "",
          "type": "address"
        }
      ],
      "stateMutability": "view",
      "type": "function"
    },
    {
      "inputs": [],
      "name": "renounceOwnership",
      "outputs": [],
      "stateMutability": "nonpayable",
      "type": "function"
    },
    {
      "inputs": [
        {
          "internalType": "uint256",
          "name": "_id",
          "type": "uint256"
        }
      ],
      "name": "returnBook",
      "outputs": [],
      "stateMutability": "nonpayable",
      "type": "function"
    },
    {
      "inputs": [
        {
          "internalType": "address",
          "name": "newOwner",
          "type": "address"
        }
      ],
      "name": "transferOwnership",
      "outputs": [],
      "stateMutability": "nonpayable",
      "type": "function"
    }
  ],
  "bytecode": "0x6080604052600060045534801561001557600080fd5b5061003261002761003760201b60201c565b61003f60201b60201c565b610103565b600033905090565b60008060009054906101000a900473ffffffffffffffffffffffffffffffffffffffff169050816000806101000a81548173ffffffffffffffffffffffffffffffffffffffff021916908373ffffffffffffffffffffffffffffffffffffffff1602179055508173ffffffffffffffffffffffffffffffffffffffff168173ffffffffffffffffffffffffffffffffffffffff167f8be0079c531659141344cd1fd0a4f28419497f9722a3daafe3b4186f6b6457e060405160405180910390a35050565b6113a2806101126000396000f3fe608060405234801561001057600080fd5b50600436106100cf5760003560e01c8063715018a61161008c578063ca5140c911610066578063ca5140c914610214578063ecc86d1814610230578063f2fde38b14610260578063f88af21d1461027c576100cf565b8063715018a6146101ce5780638da5cb5b146101d8578063b795f2db146101f6576100cf565b8063142013af146100d45780632ad2ba7c146100f05780632cecb1f1146101225780634fd789151461015257806368744046146101825780636ee26566146101b2575b600080fd5b6100ee60048036038101906100e99190610d98565b6102ac565b005b61010a60048036038101906101059190610d33565b610356565b60405161011993929190610ffd565b60405180910390f35b61013c60048036038101906101379190610d6f565b6103ad565b6040516101499190610fe2565b60405180910390f35b61016c60048036038101906101679190610d6f565b6103ca565b6040516101799190610ee7565b60405180910390f35b61019c60048036038101906101979190610d6f565b610407565b6040516101a99190610fe2565b60405180910390f35b6101cc60048036038101906101c79190610d6f565b61041f565b005b6101d661076c565b005b6101e06107f4565b6040516101ed9190610ee7565b60405180910390f35b6101fe61081d565b60405161020b9190610fe2565b60405180910390f35b61022e60048036038101906102299190610d6f565b610827565b005b61024a60048036038101906102459190610d33565b610a8b565b6040516102579190610fe2565b60405180910390f35b61027a60048036038101906102759190610d0a565b610ae9565b005b61029660048036038101906102919190610d6f565b610be1565b6040516102a39190610ee7565b60405180910390f35b6102b4610c14565b73ffffffffffffffffffffffffffffffffffffffff166102d26107f4565b73ffffffffffffffffffffffffffffffffffffffff1614610328576040517f08c379a000000000000000000000000000000000000000000000000000000000815260040161031f90610fa2565b60405180910390fd5b8060016000848152602001908152602001600020600082825461034b9190611045565b925050819055505050565b6002602052816000526040600020602052806000526040600020600091509150508060000154908060010154908060020160009054906101000a900473ffffffffffffffffffffffffffffffffffffffff16905083565b600060016000838152602001908152602001600020549050919050565b60006003600083815260200190815260200160002060009054906101000a900473ffffffffffffffffffffffffffffffffffffffff169050919050565b60016020528060005260406000206000915090505481565b6104276107f4565b73ffffffffffffffffffffffffffffffffffffffff163373ffffffffffffffffffffffffffffffffffffffff161415610495576040517f08c379a000000000000000000000000000000000000000000000000000000000815260040161048c90610f42565b60405180910390fd5b60006001600083815260200190815260200160002054116104eb576040517f08c379a00000000000000000000000000000000000000000000000000000000081526004016104e290610f82565b60405180910390fd5b6000600260003373ffffffffffffffffffffffffffffffffffffffff1673ffffffffffffffffffffffffffffffffffffffff16815260200190815260200160002060008381526020019081526020016000206000015414610581576040517f08c379a000000000000000000000000000000000000000000000000000000000815260040161057890610f02565b60405180910390fd5b600260003373ffffffffffffffffffffffffffffffffffffffff1673ffffffffffffffffffffffffffffffffffffffff168152602001908152602001600020600082815260200190815260200160002060000160008154809291906105e590611135565b919050555043600260003373ffffffffffffffffffffffffffffffffffffffff1673ffffffffffffffffffffffffffffffffffffffff16815260200190815260200160002060008381526020019081526020016000206001018190555033600260003373ffffffffffffffffffffffffffffffffffffffff1673ffffffffffffffffffffffffffffffffffffffff168152602001908152602001600020600083815260200190815260200160002060020160006101000a81548173ffffffffffffffffffffffffffffffffffffffff021916908373ffffffffffffffffffffffffffffffffffffffff1602179055506001600082815260200190815260200160002060008154809291906106f89061110b565b91905055503360036000600454815260200190815260200160002060006101000a81548173ffffffffffffffffffffffffffffffffffffffff021916908373ffffffffffffffffffffffffffffffffffffffff1602179055506004600081548092919061076490611135565b919050555050565b610774610c14565b73ffffffffffffffffffffffffffffffffffffffff166107926107f4565b73ffffffffffffffffffffffffffffffffffffffff16146107e8576040517f08c379a00000000000000000000000000000000000000000000000000000000081526004016107df90610fa2565b60405180910390fd5b6107f26000610c1c565b565b60008060009054906101000a900473ffffffffffffffffffffffffffffffffffffffff16905090565b6000600454905090565b61082f6107f4565b73ffffffffffffffffffffffffffffffffffffffff163373ffffffffffffffffffffffffffffffffffffffff16141561089d576040517f08c379a000000000000000000000000000000000000000000000000000000000815260040161089490610f42565b60405180910390fd5b6000600260003373ffffffffffffffffffffffffffffffffffffffff1673ffffffffffffffffffffffffffffffffffffffff16815260200190815260200160002060008381526020019081526020016000206000015411610933576040517f08c379a000000000000000000000000000000000000000000000000000000000815260040161092a90610fc2565b60405180910390fd5b6064600260003373ffffffffffffffffffffffffffffffffffffffff1673ffffffffffffffffffffffffffffffffffffffff16815260200190815260200160002060008381526020019081526020016000206001015443610994919061109b565b11156109d5576040517f08c379a00000000000000000000000000000000000000000000000000000000081526004016109cc90610f62565b60405180910390fd5b600260003373ffffffffffffffffffffffffffffffffffffffff1673ffffffffffffffffffffffffffffffffffffffff168152602001908152602001600020600082815260200190815260200160002060008082016000905560018201600090556002820160006101000a81549073ffffffffffffffffffffffffffffffffffffffff02191690555050600160008281526020019081526020016000206000815480929190610a8390611135565b919050555050565b6000600260008473ffffffffffffffffffffffffffffffffffffffff1673ffffffffffffffffffffffffffffffffffffffff168152602001908152602001600020600083815260200190815260200160002060000154905092915050565b610af1610c14565b73ffffffffffffffffffffffffffffffffffffffff16610b0f6107f4565b73ffffffffffffffffffffffffffffffffffffffff1614610b65576040517f08c379a0000000000000000000000000000000000000000000000000000000008152600401610b5c90610fa2565b60405180910390fd5b600073ffffffffffffffffffffffffffffffffffffffff168173ffffffffffffffffffffffffffffffffffffffff161415610bd5576040517f08c379a0000000000000000000000000000000000000000000000000000000008152600401610bcc90610f22565b60405180910390fd5b610bde81610c1c565b50565b60036020528060005260406000206000915054906101000a900473ffffffffffffffffffffffffffffffffffffffff1681565b600033905090565b60008060009054906101000a900473ffffffffffffffffffffffffffffffffffffffff169050816000806101000a81548173ffffffffffffffffffffffffffffffffffffffff021916908373ffffffffffffffffffffffffffffffffffffffff1602179055508173ffffffffffffffffffffffffffffffffffffffff168173ffffffffffffffffffffffffffffffffffffffff167f8be0079c531659141344cd1fd0a4f28419497f9722a3daafe3b4186f6b6457e060405160405180910390a35050565b600081359050610cef8161133e565b92915050565b600081359050610d0481611355565b92915050565b600060208284031215610d1c57600080fd5b6000610d2a84828501610ce0565b91505092915050565b60008060408385031215610d4657600080fd5b6000610d5485828601610ce0565b9250506020610d6585828601610cf5565b9150509250929050565b600060208284031215610d8157600080fd5b6000610d8f84828501610cf5565b91505092915050565b60008060408385031215610dab57600080fd5b6000610db985828601610cf5565b9250506020610dca85828601610cf5565b9150509250929050565b610ddd816110cf565b82525050565b6000610df0603283611034565b9150610dfb826111ad565b604082019050919050565b6000610e13602683611034565b9150610e1e826111fc565b604082019050919050565b6000610e36602f83611034565b9150610e418261124b565b604082019050919050565b6000610e59601f83611034565b9150610e648261129a565b602082019050919050565b6000610e7c601983611034565b9150610e87826112c3565b602082019050919050565b6000610e9f602083611034565b9150610eaa826112ec565b602082019050919050565b6000610ec2601283611034565b9150610ecd82611315565b602082019050919050565b610ee181611101565b82525050565b6000602082019050610efc6000830184610dd4565b92915050565b60006020820190508181036000830152610f1b81610de3565b9050919050565b60006020820190508181036000830152610f3b81610e06565b9050919050565b60006020820190508181036000830152610f5b81610e29565b9050919050565b60006020820190508181036000830152610f7b81610e4c565b9050919050565b60006020820190508181036000830152610f9b81610e6f565b9050919050565b60006020820190508181036000830152610fbb81610e92565b9050919050565b60006020820190508181036000830152610fdb81610eb5565b9050919050565b6000602082019050610ff76000830184610ed8565b92915050565b60006060820190506110126000830186610ed8565b61101f6020830185610ed8565b61102c6040830184610dd4565b949350505050565b600082825260208201905092915050565b600061105082611101565b915061105b83611101565b9250827fffffffffffffffffffffffffffffffffffffffffffffffffffffffffffffffff038211156110905761108f61117e565b5b828201905092915050565b60006110a682611101565b91506110b183611101565b9250828210156110c4576110c361117e565b5b828203905092915050565b60006110da826110e1565b9050919050565b600073ffffffffffffffffffffffffffffffffffffffff82169050919050565b6000819050919050565b600061111682611101565b9150600082141561112a5761112961117e565b5b600182039050919050565b600061114082611101565b91507fffffffffffffffffffffffffffffffffffffffffffffffffffffffffffffffff8214156111735761117261117e565b5b600182019050919050565b7f4e487b7100000000000000000000000000000000000000000000000000000000600052601160045260246000fd5b7f596f752063616e27742068617665206d6f7265207468616e206f6e6520626f6f60008201527f6b206f66207468652073616d6520747970650000000000000000000000000000602082015250565b7f4f776e61626c653a206e6577206f776e657220697320746865207a65726f206160008201527f6464726573730000000000000000000000000000000000000000000000000000602082015250565b7f54686973206f7065726174696f6e2063616e206265206578656375746564206f60008201527f6e6c79206279206120636c69656e740000000000000000000000000000000000602082015250565b7f596f75206d6973736564207468652072657475726e696e6720706572696f6400600082015250565b7f5468697320626f6f6b206973206f7574206f662073746f636b00000000000000600082015250565b7f4f776e61626c653a2063616c6c6572206973206e6f7420746865206f776e6572600082015250565b7f4e6f206974656d7320746f2072657475726e0000000000000000000000000000600082015250565b611347816110cf565b811461135257600080fd5b50565b61135e81611101565b811461136957600080fd5b5056fea26469706673582212206331c00ec7caf5c094dedb6516b5026914a7a379267527ac0c1c3169d29f77d264736f6c63430008040033",
  "linkReferences": {},
  "deployedLinkReferences": {}
}