{
  "_format": "hh-sol-artifact-1",
  "contractName": "Library",
  "sourceName": "contracts/Library.sol",
  "abi": [
    {
      "anonymous": false,
      "inputs": [
        {
          "indexed": true,
          "internalType": "address",
          "name": "previousOwner",
          "type": "address"
        },
        {
          "indexed": true,
          "internalType": "address",
          "name": "newOwner",
          "type": "address"
        }
      ],
      "name": "OwnershipTransferred",
      "type": "event"
    },
    {
      "stateMutability": "payable",
      "type": "fallback"
    },
    {
      "inputs": [],
      "name": "LibraryToken",
      "outputs": [
        {
          "internalType": "contract LibToken",
          "name": "",
          "type": "address"
        }
      ],
      "stateMutability": "view",
      "type": "function"
    },
    {
      "inputs": [
        {
          "internalType": "uint256",
          "name": "_id",
          "type": "uint256"
        },
        {
          "internalType": "uint256",
          "name": "_quantity",
          "type": "uint256"
        }
      ],
      "name": "addBooks",
      "outputs": [],
      "stateMutability": "nonpayable",
      "type": "function"
    },
    {
      "inputs": [
        {
          "internalType": "uint256",
          "name": "",
          "type": "uint256"
        }
      ],
      "name": "books",
      "outputs": [
        {
          "internalType": "uint256",
          "name": "",
          "type": "uint256"
        }
      ],
      "stateMutability": "view",
      "type": "function"
    },
    {
      "inputs": [
        {
          "internalType": "uint256",
          "name": "_id",
          "type": "uint256"
        }
      ],
      "name": "buyBook",
      "outputs": [],
      "stateMutability": "payable",
      "type": "function"
    },
    {
      "inputs": [
        {
          "internalType": "uint256",
          "name": "_id",
          "type": "uint256"
        }
      ],
      "name": "clientAddress",
      "outputs": [
        {
          "internalType": "address",
          "name": "",
          "type": "address"
        }
      ],
      "stateMutability": "view",
      "type": "function"
    },
    {
      "inputs": [
        {
          "internalType": "address",
          "name": "",
          "type": "address"
        },
        {
          "internalType": "uint256",
          "name": "",
          "type": "uint256"
        }
      ],
      "name": "clientPurchases",
      "outputs": [
        {
          "internalType": "uint256",
          "name": "quantity",
          "type": "uint256"
        },
        {
          "internalType": "uint256",
          "name": "blockNumber",
          "type": "uint256"
        },
        {
          "internalType": "address",
          "name": "clientAddress",
          "type": "address"
        }
      ],
      "stateMutability": "view",
      "type": "function"
    },
    {
      "inputs": [
        {
          "internalType": "uint256",
          "name": "",
          "type": "uint256"
        }
      ],
      "name": "clients",
      "outputs": [
        {
          "internalType": "address",
          "name": "",
          "type": "address"
        }
      ],
      "stateMutability": "view",
      "type": "function"
    },
    {
      "inputs": [
        {
          "internalType": "address",
          "name": "_addr",
          "type": "address"
        }
      ],
      "name": "getNonces",
      "outputs": [
        {
          "internalType": "uint256",
          "name": "",
          "type": "uint256"
        }
      ],
      "stateMutability": "view",
      "type": "function"
    },
    {
      "inputs": [
        {
          "internalType": "uint256",
          "name": "_id",
          "type": "uint256"
        }
      ],
      "name": "listBookQuantity",
      "outputs": [
        {
          "internalType": "uint256",
          "name": "",
          "type": "uint256"
        }
      ],
      "stateMutability": "view",
      "type": "function"
    },
    {
      "inputs": [
        {
          "internalType": "address",
          "name": "_client",
          "type": "address"
        },
        {
          "internalType": "uint256",
          "name": "_id",
          "type": "uint256"
        }
      ],
      "name": "listClientBooks",
      "outputs": [
        {
          "internalType": "uint256",
          "name": "",
          "type": "uint256"
        }
      ],
      "stateMutability": "view",
      "type": "function"
    },
    {
      "inputs": [],
      "name": "mintLIB",
      "outputs": [],
      "stateMutability": "payable",
      "type": "function"
    },
    {
      "inputs": [],
      "name": "numberOfClients",
      "outputs": [
        {
          "internalType": "uint256",
          "name": "",
          "type": "uint256"
        }
      ],
      "stateMutability": "view",
      "type": "function"
    },
    {
      "inputs": [],
      "name": "owner",
      "outputs": [
        {
          "internalType": "address",
          "name": "",
          "type": "address"
        }
      ],
      "stateMutability": "view",
      "type": "function"
    },
    {
      "inputs": [
        {
          "internalType": "address",
          "name": "",
          "type": "address"
        }
      ],
      "name": "paidFee",
      "outputs": [
        {
          "internalType": "bool",
          "name": "",
          "type": "bool"
        }
      ],
      "stateMutability": "view",
      "type": "function"
    },
    {
      "inputs": [],
      "name": "payFee",
      "outputs": [],
      "stateMutability": "payable",
      "type": "function"
    },
    {
      "inputs": [],
      "name": "renounceOwnership",
      "outputs": [],
      "stateMutability": "nonpayable",
      "type": "function"
    },
    {
      "inputs": [
        {
          "internalType": "uint256",
          "name": "_id",
          "type": "uint256"
        },
        {
          "internalType": "uint256",
          "name": "value",
          "type": "uint256"
        },
        {
          "internalType": "uint256",
          "name": "deadline",
          "type": "uint256"
        },
        {
          "internalType": "uint8",
          "name": "v",
          "type": "uint8"
        },
        {
          "internalType": "bytes32",
          "name": "r",
          "type": "bytes32"
        },
        {
          "internalType": "bytes32",
          "name": "s",
          "type": "bytes32"
        }
      ],
      "name": "rentBook",
      "outputs": [],
      "stateMutability": "payable",
      "type": "function"
    },
    {
      "inputs": [
        {
          "internalType": "uint256",
          "name": "_id",
          "type": "uint256"
        }
      ],
      "name": "returnBook",
      "outputs": [],
      "stateMutability": "payable",
      "type": "function"
    },
    {
      "inputs": [
        {
          "internalType": "address",
          "name": "newOwner",
          "type": "address"
        }
      ],
      "name": "transferOwnership",
      "outputs": [],
      "stateMutability": "nonpayable",
      "type": "function"
    },
    {
      "inputs": [
        {
          "internalType": "uint256",
          "name": "value",
          "type": "uint256"
        }
      ],
      "name": "withdraw",
      "outputs": [],
      "stateMutability": "payable",
      "type": "function"
    },
    {
      "stateMutability": "payable",
      "type": "receive"
    }
  ],
  "bytecode": "0x6080604052600060065534801561001557600080fd5b5061003261002761003760201b60201c565b61003f60201b60201c565b610103565b600033905090565b60008060009054906101000a900473ffffffffffffffffffffffffffffffffffffffff169050816000806101000a81548173ffffffffffffffffffffffffffffffffffffffff021916908373ffffffffffffffffffffffffffffffffffffffff1602179055508173ffffffffffffffffffffffffffffffffffffffff168173ffffffffffffffffffffffffffffffffffffffff167f8be0079c531659141344cd1fd0a4f28419497f9722a3daafe3b4186f6b6457e060405160405180910390a35050565b61226c80620001136000396000f3fe6080604052600436106101235760003560e01c8063591a726f116100a0578063b795f2db11610064578063b795f2db146103aa578063ca5140c9146103d5578063ecc86d18146103f1578063f2fde38b1461042e578063f88af21d1461045757610132565b8063591a726f146102d2578063687440461461030f5780636ee265661461034c578063715018a6146103685780638da5cb5b1461037f57610132565b80632cecb1f1116100e75780632cecb1f1146101f55780632e1a7d4d146102325780633bbc52ad1461024e5780634fd78915146102585780635124ae951461029557610132565b80630e3768701461013c578063142013af146101585780631fbda78f1461018157806329610252146101ac5780632ad2ba7c146101b657610132565b3661013257610130610494565b005b61013a610494565b005b610156600480360381019061015191906118bd565b610634565b005b34801561016457600080fd5b5061017f600480360381019061017a9190611881565b6108fa565b005b34801561018d57600080fd5b506101966109a4565b6040516101a39190611c12565b60405180910390f35b6101b4610494565b005b3480156101c257600080fd5b506101dd60048036038101906101d891906117ca565b6109ca565b6040516101ec93929190611d88565b60405180910390f35b34801561020157600080fd5b5061021c6004803603810190610217919061182f565b610a21565b6040516102299190611d6d565b60405180910390f35b61024c6004803603810190610247919061182f565b610a3e565b005b610256610b04565b005b34801561026457600080fd5b5061027f600480360381019061027a919061182f565b610c4e565b60405161028c9190611b0d565b60405180910390f35b3480156102a157600080fd5b506102bc60048036038101906102b791906117a1565b610c8b565b6040516102c99190611d6d565b60405180910390f35b3480156102de57600080fd5b506102f960048036038101906102f491906117a1565b610d3f565b6040516103069190611bf7565b60405180910390f35b34801561031b57600080fd5b506103366004803603810190610331919061182f565b610d5f565b6040516103439190611d6d565b60405180910390f35b6103666004803603810190610361919061182f565b610d77565b005b34801561037457600080fd5b5061037d6111af565b005b34801561038b57600080fd5b50610394611237565b6040516103a19190611b0d565b60405180910390f35b3480156103b657600080fd5b506103bf611260565b6040516103cc9190611d6d565b60405180910390f35b6103ef60048036038101906103ea919061182f565b61126a565b005b3480156103fd57600080fd5b50610418600480360381019061041391906117ca565b6114ce565b6040516104259190611d6d565b60405180910390f35b34801561043a57600080fd5b50610455600480360381019061045091906117a1565b61152c565b005b34801561046357600080fd5b5061047e6004803603810190610479919061182f565b611624565b60405161048b9190611b0d565b60405180910390f35b61049c611237565b73ffffffffffffffffffffffffffffffffffffffff163373ffffffffffffffffffffffffffffffffffffffff16141561050a576040517f08c379a000000000000000000000000000000000000000000000000000000000815260040161050190611c8d565b60405180910390fd5b6000341161054d576040517f08c379a000000000000000000000000000000000000000000000000000000000815260040161054490611ced565b60405180910390fd5b6001600560003373ffffffffffffffffffffffffffffffffffffffff1673ffffffffffffffffffffffffffffffffffffffff16815260200190815260200160002060006101000a81548160ff021916908315150217905550600160009054906101000a900473ffffffffffffffffffffffffffffffffffffffff1673ffffffffffffffffffffffffffffffffffffffff166342966c68346040518263ffffffff1660e01b81526004016106009190611d6d565b600060405180830381600087803b15801561061a57600080fd5b505af115801561062e573d6000803e3d6000fd5b50505050565b61063c611237565b73ffffffffffffffffffffffffffffffffffffffff163373ffffffffffffffffffffffffffffffffffffffff1614156106aa576040517f08c379a00000000000000000000000000000000000000000000000000000000081526004016106a190611c8d565b60405180910390fd5b6000600260008881526020019081526020016000205411610700576040517f08c379a00000000000000000000000000000000000000000000000000000000081526004016106f790611ccd565b60405180910390fd5b6000600360003373ffffffffffffffffffffffffffffffffffffffff1673ffffffffffffffffffffffffffffffffffffffff16815260200190815260200160002060008881526020019081526020016000206000015414610796576040517f08c379a000000000000000000000000000000000000000000000000000000000815260040161078d90611c4d565b60405180910390fd5b600160009054906101000a900473ffffffffffffffffffffffffffffffffffffffff1673ffffffffffffffffffffffffffffffffffffffff1663d505accf333088888888886040518863ffffffff1660e01b81526004016107fd9796959493929190611b5f565b600060405180830381600087803b15801561081757600080fd5b505af115801561082b573d6000803e3d6000fd5b50505050600160009054906101000a900473ffffffffffffffffffffffffffffffffffffffff1673ffffffffffffffffffffffffffffffffffffffff166323b872dd3330670de0b6b3a76400006040518463ffffffff1660e01b815260040161089693929190611b28565b602060405180830381600087803b1580156108b057600080fd5b505af11580156108c4573d6000803e3d6000fd5b505050506040513d601f19601f820116820180604052508101906108e89190611806565b506108f286610d77565b505050505050565b610902611657565b73ffffffffffffffffffffffffffffffffffffffff16610920611237565b73ffffffffffffffffffffffffffffffffffffffff1614610976576040517f08c379a000000000000000000000000000000000000000000000000000000000815260040161096d90611d0d565b60405180910390fd5b806002600084815260200190815260200160002060008282546109999190611dd0565b925050819055505050565b600160009054906101000a900473ffffffffffffffffffffffffffffffffffffffff1681565b6003602052816000526040600020602052806000526040600020600091509150508060000154908060010154908060020160009054906101000a900473ffffffffffffffffffffffffffffffffffffffff16905083565b600060026000838152602001908152602001600020549050919050565b610a46611657565b73ffffffffffffffffffffffffffffffffffffffff16610a64611237565b73ffffffffffffffffffffffffffffffffffffffff1614610aba576040517f08c379a0000000000000000000000000000000000000000000000000000000008152600401610ab190611d0d565b60405180910390fd5b3373ffffffffffffffffffffffffffffffffffffffff166108fc829081150290604051600060405180830381858888f19350505050158015610b00573d6000803e3d6000fd5b5050565b610b0c611237565b73ffffffffffffffffffffffffffffffffffffffff163373ffffffffffffffffffffffffffffffffffffffff161415610b7a576040517f08c379a0000000000000000000000000000000000000000000000000000000008152600401610b7190611c8d565b60405180910390fd5b60003411610bbd576040517f08c379a0000000000000000000000000000000000000000000000000000000008152600401610bb490611c2d565b60405180910390fd5b600160009054906101000a900473ffffffffffffffffffffffffffffffffffffffff1673ffffffffffffffffffffffffffffffffffffffff166340c10f1933346040518363ffffffff1660e01b8152600401610c1a929190611bce565b600060405180830381600087803b158015610c3457600080fd5b505af1158015610c48573d6000803e3d6000fd5b50505050565b60006004600083815260200190815260200160002060009054906101000a900473ffffffffffffffffffffffffffffffffffffffff169050919050565b6000600160009054906101000a900473ffffffffffffffffffffffffffffffffffffffff1673ffffffffffffffffffffffffffffffffffffffff1663a5fbce1f836040518263ffffffff1660e01b8152600401610ce89190611b0d565b60206040518083038186803b158015610d0057600080fd5b505afa158015610d14573d6000803e3d6000fd5b505050506040513d601f19601f82011682018060405250810190610d389190611858565b9050919050565b60056020528060005260406000206000915054906101000a900460ff1681565b60026020528060005260406000206000915090505481565b610d7f611237565b73ffffffffffffffffffffffffffffffffffffffff163373ffffffffffffffffffffffffffffffffffffffff161415610ded576040517f08c379a0000000000000000000000000000000000000000000000000000000008152600401610de490611c8d565b60405180910390fd5b6000600260008381526020019081526020016000205411610e43576040517f08c379a0000000000000000000000000000000000000000000000000000000008152600401610e3a90611ccd565b60405180910390fd5b6000600360003373ffffffffffffffffffffffffffffffffffffffff1673ffffffffffffffffffffffffffffffffffffffff16815260200190815260200160002060008381526020019081526020016000206000015414610ed9576040517f08c379a0000000000000000000000000000000000000000000000000000000008152600401610ed090611c4d565b60405180910390fd5b60011515600560003373ffffffffffffffffffffffffffffffffffffffff1673ffffffffffffffffffffffffffffffffffffffff16815260200190815260200160002060009054906101000a900460ff16151514610f6c576040517f08c379a0000000000000000000000000000000000000000000000000000000008152600401610f6390611d2d565b60405180910390fd5b600360003373ffffffffffffffffffffffffffffffffffffffff1673ffffffffffffffffffffffffffffffffffffffff16815260200190815260200160002060008281526020019081526020016000206000016000815480929190610fd090611f19565b919050555043600360003373ffffffffffffffffffffffffffffffffffffffff1673ffffffffffffffffffffffffffffffffffffffff16815260200190815260200160002060008381526020019081526020016000206001018190555033600360003373ffffffffffffffffffffffffffffffffffffffff1673ffffffffffffffffffffffffffffffffffffffff168152602001908152602001600020600083815260200190815260200160002060020160006101000a81548173ffffffffffffffffffffffffffffffffffffffff021916908373ffffffffffffffffffffffffffffffffffffffff1602179055506002600082815260200190815260200160002060008154809291906110e390611eef565b91905055503360046000600654815260200190815260200160002060006101000a81548173ffffffffffffffffffffffffffffffffffffffff021916908373ffffffffffffffffffffffffffffffffffffffff1602179055506006600081548092919061114f90611f19565b91905055506000600560003373ffffffffffffffffffffffffffffffffffffffff1673ffffffffffffffffffffffffffffffffffffffff16815260200190815260200160002060006101000a81548160ff02191690831515021790555050565b6111b7611657565b73ffffffffffffffffffffffffffffffffffffffff166111d5611237565b73ffffffffffffffffffffffffffffffffffffffff161461122b576040517f08c379a000000000000000000000000000000000000000000000000000000000815260040161122290611d0d565b60405180910390fd5b611235600061165f565b565b60008060009054906101000a900473ffffffffffffffffffffffffffffffffffffffff16905090565b6000600654905090565b611272611237565b73ffffffffffffffffffffffffffffffffffffffff163373ffffffffffffffffffffffffffffffffffffffff1614156112e0576040517f08c379a00000000000000000000000000000000000000000000000000000000081526004016112d790611c8d565b60405180910390fd5b6000600360003373ffffffffffffffffffffffffffffffffffffffff1673ffffffffffffffffffffffffffffffffffffffff16815260200190815260200160002060008381526020019081526020016000206000015411611376576040517f08c379a000000000000000000000000000000000000000000000000000000000815260040161136d90611d4d565b60405180910390fd5b6064600360003373ffffffffffffffffffffffffffffffffffffffff1673ffffffffffffffffffffffffffffffffffffffff168152602001908152602001600020600083815260200190815260200160002060010154436113d79190611e26565b1115611418576040517f08c379a000000000000000000000000000000000000000000000000000000000815260040161140f90611cad565b60405180910390fd5b600360003373ffffffffffffffffffffffffffffffffffffffff1673ffffffffffffffffffffffffffffffffffffffff168152602001908152602001600020600082815260200190815260200160002060008082016000905560018201600090556002820160006101000a81549073ffffffffffffffffffffffffffffffffffffffff021916905550506002600082815260200190815260200160002060008154809291906114c690611f19565b919050555050565b6000600360008473ffffffffffffffffffffffffffffffffffffffff1673ffffffffffffffffffffffffffffffffffffffff168152602001908152602001600020600083815260200190815260200160002060000154905092915050565b611534611657565b73ffffffffffffffffffffffffffffffffffffffff16611552611237565b73ffffffffffffffffffffffffffffffffffffffff16146115a8576040517f08c379a000000000000000000000000000000000000000000000000000000000815260040161159f90611d0d565b60405180910390fd5b600073ffffffffffffffffffffffffffffffffffffffff168173ffffffffffffffffffffffffffffffffffffffff161415611618576040517f08c379a000000000000000000000000000000000000000000000000000000000815260040161160f90611c6d565b60405180910390fd5b6116218161165f565b50565b60046020528060005260406000206000915054906101000a900473ffffffffffffffffffffffffffffffffffffffff1681565b600033905090565b60008060009054906101000a900473ffffffffffffffffffffffffffffffffffffffff169050816000806101000a81548173ffffffffffffffffffffffffffffffffffffffff021916908373ffffffffffffffffffffffffffffffffffffffff1602179055508173ffffffffffffffffffffffffffffffffffffffff168173ffffffffffffffffffffffffffffffffffffffff167f8be0079c531659141344cd1fd0a4f28419497f9722a3daafe3b4186f6b6457e060405160405180910390a35050565b600081359050611732816121c3565b92915050565b600081519050611747816121da565b92915050565b60008135905061175c816121f1565b92915050565b60008135905061177181612208565b92915050565b60008151905061178681612208565b92915050565b60008135905061179b8161221f565b92915050565b6000602082840312156117b357600080fd5b60006117c184828501611723565b91505092915050565b600080604083850312156117dd57600080fd5b60006117eb85828601611723565b92505060206117fc85828601611762565b9150509250929050565b60006020828403121561181857600080fd5b600061182684828501611738565b91505092915050565b60006020828403121561184157600080fd5b600061184f84828501611762565b91505092915050565b60006020828403121561186a57600080fd5b600061187884828501611777565b91505092915050565b6000806040838503121561189457600080fd5b60006118a285828601611762565b92505060206118b385828601611762565b9150509250929050565b60008060008060008060c087890312156118d657600080fd5b60006118e489828a01611762565b96505060206118f589828a01611762565b955050604061190689828a01611762565b945050606061191789828a0161178c565b935050608061192889828a0161174d565b92505060a061193989828a0161174d565b9150509295509295509295565b61194f81611e5a565b82525050565b61195e81611e6c565b82525050565b61196d81611e78565b82525050565b61197c81611eb9565b82525050565b61198b81611edd565b82525050565b600061199e601c83611dbf565b91506119a982611f91565b602082019050919050565b60006119c1603283611dbf565b91506119cc82611fba565b604082019050919050565b60006119e4602683611dbf565b91506119ef82612009565b604082019050919050565b6000611a07602f83611dbf565b9150611a1282612058565b604082019050919050565b6000611a2a601f83611dbf565b9150611a35826120a7565b602082019050919050565b6000611a4d601983611dbf565b9150611a58826120d0565b602082019050919050565b6000611a70602283611dbf565b9150611a7b826120f9565b604082019050919050565b6000611a93602083611dbf565b9150611a9e82612148565b602082019050919050565b6000611ab6601f83611dbf565b9150611ac182612171565b602082019050919050565b6000611ad9601283611dbf565b9150611ae48261219a565b602082019050919050565b611af881611ea2565b82525050565b611b0781611eac565b82525050565b6000602082019050611b226000830184611946565b92915050565b6000606082019050611b3d6000830186611946565b611b4a6020830185611946565b611b576040830184611982565b949350505050565b600060e082019050611b74600083018a611946565b611b816020830189611946565b611b8e6040830188611aef565b611b9b6060830187611aef565b611ba86080830186611afe565b611bb560a0830185611964565b611bc260c0830184611964565b98975050505050505050565b6000604082019050611be36000830185611946565b611bf06020830184611aef565b9392505050565b6000602082019050611c0c6000830184611955565b92915050565b6000602082019050611c276000830184611973565b92915050565b60006020820190508181036000830152611c4681611991565b9050919050565b60006020820190508181036000830152611c66816119b4565b9050919050565b60006020820190508181036000830152611c86816119d7565b9050919050565b60006020820190508181036000830152611ca6816119fa565b9050919050565b60006020820190508181036000830152611cc681611a1d565b9050919050565b60006020820190508181036000830152611ce681611a40565b9050919050565b60006020820190508181036000830152611d0681611a63565b9050919050565b60006020820190508181036000830152611d2681611a86565b9050919050565b60006020820190508181036000830152611d4681611aa9565b9050919050565b60006020820190508181036000830152611d6681611acc565b9050919050565b6000602082019050611d826000830184611aef565b92915050565b6000606082019050611d9d6000830186611aef565b611daa6020830185611aef565b611db76040830184611946565b949350505050565b600082825260208201905092915050565b6000611ddb82611ea2565b9150611de683611ea2565b9250827fffffffffffffffffffffffffffffffffffffffffffffffffffffffffffffffff03821115611e1b57611e1a611f62565b5b828201905092915050565b6000611e3182611ea2565b9150611e3c83611ea2565b925082821015611e4f57611e4e611f62565b5b828203905092915050565b6000611e6582611e82565b9050919050565b60008115159050919050565b6000819050919050565b600073ffffffffffffffffffffffffffffffffffffffff82169050919050565b6000819050919050565b600060ff82169050919050565b6000611ec482611ecb565b9050919050565b6000611ed682611e82565b9050919050565b6000611ee882611ea2565b9050919050565b6000611efa82611ea2565b91506000821415611f0e57611f0d611f62565b5b600182039050919050565b6000611f2482611ea2565b91507fffffffffffffffffffffffffffffffffffffffffffffffffffffffffffffffff821415611f5757611f56611f62565b5b600182019050919050565b7f4e487b7100000000000000000000000000000000000000000000000000000000600052601160045260246000fd5b7f5468657265206d757374206265206174206c6561737420312077656900000000600082015250565b7f596f752063616e27742068617665206d6f7265207468616e206f6e6520626f6f60008201527f6b206f66207468652073616d6520747970650000000000000000000000000000602082015250565b7f4f776e61626c653a206e6577206f776e657220697320746865207a65726f206160008201527f6464726573730000000000000000000000000000000000000000000000000000602082015250565b7f54686973206f7065726174696f6e2063616e206265206578656375746564206f60008201527f6e6c79206279206120636c69656e740000000000000000000000000000000000602082015250565b7f596f75206d6973736564207468652072657475726e696e6720706572696f6400600082015250565b7f5468697320626f6f6b206973206f7574206f662073746f636b00000000000000600082015250565b7f596f7520646964206e6f74207061792074686520666565206f6620302e31204c60008201527f4942000000000000000000000000000000000000000000000000000000000000602082015250565b7f4f776e61626c653a2063616c6c6572206973206e6f7420746865206f776e6572600082015250565b7f596f75206d757374207061792074686520666565206f6620302e31204c494200600082015250565b7f4e6f206974656d7320746f2072657475726e0000000000000000000000000000600082015250565b6121cc81611e5a565b81146121d757600080fd5b50565b6121e381611e6c565b81146121ee57600080fd5b50565b6121fa81611e78565b811461220557600080fd5b50565b61221181611ea2565b811461221c57600080fd5b50565b61222881611eac565b811461223357600080fd5b5056fea26469706673582212201a8d710784c6394956cc7f4801f6ab5bb04282e4f7175cc5f3a1002db18886b064736f6c63430008040033",
  "linkReferences": {},
  "deployedLinkReferences": {}
}