{
  "_format": "hh-sol-artifact-1",
  "contractName": "Library",
  "sourceName": "contracts/Library.sol",
  "abi": [
    {
      "anonymous": false,
      "inputs": [
        {
          "indexed": true,
          "internalType": "address",
          "name": "previousOwner",
          "type": "address"
        },
        {
          "indexed": true,
          "internalType": "address",
          "name": "newOwner",
          "type": "address"
        }
      ],
      "name": "OwnershipTransferred",
      "type": "event"
    },
    {
      "inputs": [
        {
          "internalType": "uint256",
          "name": "_id",
          "type": "uint256"
        },
        {
          "internalType": "uint256",
          "name": "_quantity",
          "type": "uint256"
        }
      ],
      "name": "addBooks",
      "outputs": [],
      "stateMutability": "nonpayable",
      "type": "function"
    },
    {
      "inputs": [
        {
          "internalType": "uint256",
          "name": "",
          "type": "uint256"
        }
      ],
      "name": "books",
      "outputs": [
        {
          "internalType": "uint256",
          "name": "",
          "type": "uint256"
        }
      ],
      "stateMutability": "view",
      "type": "function"
    },
    {
      "inputs": [
        {
          "internalType": "uint256",
          "name": "_id",
          "type": "uint256"
        }
      ],
      "name": "buyBook",
      "outputs": [],
      "stateMutability": "nonpayable",
      "type": "function"
    },
    {
      "inputs": [
        {
          "internalType": "address",
          "name": "",
          "type": "address"
        },
        {
          "internalType": "uint256",
          "name": "",
          "type": "uint256"
        }
      ],
      "name": "clientPurchases",
      "outputs": [
        {
          "internalType": "uint256",
          "name": "quantity",
          "type": "uint256"
        },
        {
          "internalType": "uint256",
          "name": "blockNumber",
          "type": "uint256"
        }
      ],
      "stateMutability": "view",
      "type": "function"
    },
    {
      "inputs": [
        {
          "internalType": "uint256",
          "name": "",
          "type": "uint256"
        }
      ],
      "name": "clients",
      "outputs": [
        {
          "internalType": "address",
          "name": "",
          "type": "address"
        }
      ],
      "stateMutability": "view",
      "type": "function"
    },
    {
      "inputs": [
        {
          "internalType": "uint256",
          "name": "_id",
          "type": "uint256"
        }
      ],
      "name": "listBookQuantity",
      "outputs": [
        {
          "internalType": "uint256",
          "name": "",
          "type": "uint256"
        }
      ],
      "stateMutability": "view",
      "type": "function"
    },
    {
      "inputs": [
        {
          "internalType": "address",
          "name": "_client",
          "type": "address"
        },
        {
          "internalType": "uint256",
          "name": "_id",
          "type": "uint256"
        }
      ],
      "name": "listClientBooks",
      "outputs": [
        {
          "internalType": "uint256",
          "name": "",
          "type": "uint256"
        }
      ],
      "stateMutability": "view",
      "type": "function"
    },
    {
      "inputs": [],
      "name": "listClients",
      "outputs": [
        {
          "internalType": "address[]",
          "name": "",
          "type": "address[]"
        }
      ],
      "stateMutability": "view",
      "type": "function"
    },
    {
      "inputs": [],
      "name": "owner",
      "outputs": [
        {
          "internalType": "address",
          "name": "",
          "type": "address"
        }
      ],
      "stateMutability": "view",
      "type": "function"
    },
    {
      "inputs": [],
      "name": "renounceOwnership",
      "outputs": [],
      "stateMutability": "nonpayable",
      "type": "function"
    },
    {
      "inputs": [
        {
          "internalType": "uint256",
          "name": "_id",
          "type": "uint256"
        }
      ],
      "name": "returnBook",
      "outputs": [],
      "stateMutability": "nonpayable",
      "type": "function"
    },
    {
      "inputs": [
        {
          "internalType": "address",
          "name": "newOwner",
          "type": "address"
        }
      ],
      "name": "transferOwnership",
      "outputs": [],
      "stateMutability": "nonpayable",
      "type": "function"
    }
  ],
  "bytecode": "0x6080604052600060045534801561001557600080fd5b5061003261002761003760201b60201c565b61003f60201b60201c565b610103565b600033905090565b60008060009054906101000a900473ffffffffffffffffffffffffffffffffffffffff169050816000806101000a81548173ffffffffffffffffffffffffffffffffffffffff021916908373ffffffffffffffffffffffffffffffffffffffff1602179055508173ffffffffffffffffffffffffffffffffffffffff168173ffffffffffffffffffffffffffffffffffffffff167f8be0079c531659141344cd1fd0a4f28419497f9722a3daafe3b4186f6b6457e060405160405180910390a35050565b611448806101126000396000f3fe608060405234801561001057600080fd5b50600436106100b45760003560e01c80638da5cb5b116100715780638da5cb5b1461018c578063ca5140c9146101aa578063e20ee269146101c6578063ecc86d18146101e4578063f2fde38b14610214578063f88af21d14610230576100b4565b8063142013af146100b95780632ad2ba7c146100d55780632cecb1f11461010657806368744046146101365780636ee2656614610166578063715018a614610182575b600080fd5b6100d360048036038101906100ce9190610d6c565b610260565b005b6100ef60048036038101906100ea9190610d07565b61030a565b6040516100fd929190611078565b60405180910390f35b610120600480360381019061011b9190610d43565b61033b565b60405161012d919061105d565b60405180910390f35b610150600480360381019061014b9190610d43565b610358565b60405161015d919061105d565b60405180910390f35b610180600480360381019061017b9190610d43565b610370565b005b61018a61062b565b005b6101946106b3565b6040516101a19190610f40565b60405180910390f35b6101c460048036038101906101bf9190610d43565b6106dc565b005b6101ce610919565b6040516101db9190610f5b565b60405180910390f35b6101fe60048036038101906101f99190610d07565b610a5f565b60405161020b919061105d565b60405180910390f35b61022e60048036038101906102299190610cde565b610abd565b005b61024a60048036038101906102459190610d43565b610bb5565b6040516102579190610f40565b60405180910390f35b610268610be8565b73ffffffffffffffffffffffffffffffffffffffff166102866106b3565b73ffffffffffffffffffffffffffffffffffffffff16146102dc576040517f08c379a00000000000000000000000000000000000000000000000000000000081526004016102d39061101d565b60405180910390fd5b806001600084815260200190815260200160002060008282546102ff91906110eb565b925050819055505050565b6002602052816000526040600020602052806000526040600020600091509150508060000154908060010154905082565b600060016000838152602001908152602001600020549050919050565b60016020528060005260406000206000915090505481565b6103786106b3565b73ffffffffffffffffffffffffffffffffffffffff163373ffffffffffffffffffffffffffffffffffffffff1614156103e6576040517f08c379a00000000000000000000000000000000000000000000000000000000081526004016103dd90610fbd565b60405180910390fd5b600060016000838152602001908152602001600020541161043c576040517f08c379a000000000000000000000000000000000000000000000000000000000815260040161043390610ffd565b60405180910390fd5b6000600260003373ffffffffffffffffffffffffffffffffffffffff1673ffffffffffffffffffffffffffffffffffffffff168152602001908152602001600020600083815260200190815260200160002060000154146104d2576040517f08c379a00000000000000000000000000000000000000000000000000000000081526004016104c990610f7d565b60405180910390fd5b600260003373ffffffffffffffffffffffffffffffffffffffff1673ffffffffffffffffffffffffffffffffffffffff16815260200190815260200160002060008281526020019081526020016000206000016000815480929190610536906111db565b919050555043600260003373ffffffffffffffffffffffffffffffffffffffff1673ffffffffffffffffffffffffffffffffffffffff1681526020019081526020016000206000838152602001908152602001600020600101819055506001600082815260200190815260200160002060008154809291906105b7906111b1565b91905055503360036000600454815260200190815260200160002060006101000a81548173ffffffffffffffffffffffffffffffffffffffff021916908373ffffffffffffffffffffffffffffffffffffffff16021790555060046000815480929190610623906111db565b919050555050565b610633610be8565b73ffffffffffffffffffffffffffffffffffffffff166106516106b3565b73ffffffffffffffffffffffffffffffffffffffff16146106a7576040517f08c379a000000000000000000000000000000000000000000000000000000000815260040161069e9061101d565b60405180910390fd5b6106b16000610bf0565b565b60008060009054906101000a900473ffffffffffffffffffffffffffffffffffffffff16905090565b6106e46106b3565b73ffffffffffffffffffffffffffffffffffffffff163373ffffffffffffffffffffffffffffffffffffffff161415610752576040517f08c379a000000000000000000000000000000000000000000000000000000000815260040161074990610fbd565b60405180910390fd5b6000600260003373ffffffffffffffffffffffffffffffffffffffff1673ffffffffffffffffffffffffffffffffffffffff168152602001908152602001600020600083815260200190815260200160002060000154116107e8576040517f08c379a00000000000000000000000000000000000000000000000000000000081526004016107df9061103d565b60405180910390fd5b6064600260003373ffffffffffffffffffffffffffffffffffffffff1673ffffffffffffffffffffffffffffffffffffffff168152602001908152602001600020600083815260200190815260200160002060010154436108499190611141565b111561088a576040517f08c379a000000000000000000000000000000000000000000000000000000000815260040161088190610fdd565b60405180910390fd5b600260003373ffffffffffffffffffffffffffffffffffffffff1673ffffffffffffffffffffffffffffffffffffffff168152602001908152602001600020600082815260200190815260200160002060008082016000905560018201600090555050600160008281526020019081526020016000206000815480929190610911906111db565b919050555050565b6060600060045467ffffffffffffffff81111561095f577f4e487b7100000000000000000000000000000000000000000000000000000000600052604160045260246000fd5b60405190808252806020026020018201604052801561098d5781602001602082028036833780820191505090505b50905060005b600454811015610a57576003600082815260200190815260200160002060009054906101000a900473ffffffffffffffffffffffffffffffffffffffff16828281518110610a0a577f4e487b7100000000000000000000000000000000000000000000000000000000600052603260045260246000fd5b602002602001019073ffffffffffffffffffffffffffffffffffffffff16908173ffffffffffffffffffffffffffffffffffffffff16815250508080610a4f906111db565b915050610993565b508091505090565b6000600260008473ffffffffffffffffffffffffffffffffffffffff1673ffffffffffffffffffffffffffffffffffffffff168152602001908152602001600020600083815260200190815260200160002060000154905092915050565b610ac5610be8565b73ffffffffffffffffffffffffffffffffffffffff16610ae36106b3565b73ffffffffffffffffffffffffffffffffffffffff1614610b39576040517f08c379a0000000000000000000000000000000000000000000000000000000008152600401610b309061101d565b60405180910390fd5b600073ffffffffffffffffffffffffffffffffffffffff168173ffffffffffffffffffffffffffffffffffffffff161415610ba9576040517f08c379a0000000000000000000000000000000000000000000000000000000008152600401610ba090610f9d565b60405180910390fd5b610bb281610bf0565b50565b60036020528060005260406000206000915054906101000a900473ffffffffffffffffffffffffffffffffffffffff1681565b600033905090565b60008060009054906101000a900473ffffffffffffffffffffffffffffffffffffffff169050816000806101000a81548173ffffffffffffffffffffffffffffffffffffffff021916908373ffffffffffffffffffffffffffffffffffffffff1602179055508173ffffffffffffffffffffffffffffffffffffffff168173ffffffffffffffffffffffffffffffffffffffff167f8be0079c531659141344cd1fd0a4f28419497f9722a3daafe3b4186f6b6457e060405160405180910390a35050565b600081359050610cc3816113e4565b92915050565b600081359050610cd8816113fb565b92915050565b600060208284031215610cf057600080fd5b6000610cfe84828501610cb4565b91505092915050565b60008060408385031215610d1a57600080fd5b6000610d2885828601610cb4565b9250506020610d3985828601610cc9565b9150509250929050565b600060208284031215610d5557600080fd5b6000610d6384828501610cc9565b91505092915050565b60008060408385031215610d7f57600080fd5b6000610d8d85828601610cc9565b9250506020610d9e85828601610cc9565b9150509250929050565b6000610db48383610dc0565b60208301905092915050565b610dc981611175565b82525050565b610dd881611175565b82525050565b6000610de9826110b1565b610df381856110c9565b9350610dfe836110a1565b8060005b83811015610e2f578151610e168882610da8565b9750610e21836110bc565b925050600181019050610e02565b5085935050505092915050565b6000610e496032836110da565b9150610e5482611253565b604082019050919050565b6000610e6c6026836110da565b9150610e77826112a2565b604082019050919050565b6000610e8f602f836110da565b9150610e9a826112f1565b604082019050919050565b6000610eb2601f836110da565b9150610ebd82611340565b602082019050919050565b6000610ed56019836110da565b9150610ee082611369565b602082019050919050565b6000610ef86020836110da565b9150610f0382611392565b602082019050919050565b6000610f1b6012836110da565b9150610f26826113bb565b602082019050919050565b610f3a816111a7565b82525050565b6000602082019050610f556000830184610dcf565b92915050565b60006020820190508181036000830152610f758184610dde565b905092915050565b60006020820190508181036000830152610f9681610e3c565b9050919050565b60006020820190508181036000830152610fb681610e5f565b9050919050565b60006020820190508181036000830152610fd681610e82565b9050919050565b60006020820190508181036000830152610ff681610ea5565b9050919050565b6000602082019050818103600083015261101681610ec8565b9050919050565b6000602082019050818103600083015261103681610eeb565b9050919050565b6000602082019050818103600083015261105681610f0e565b9050919050565b60006020820190506110726000830184610f31565b92915050565b600060408201905061108d6000830185610f31565b61109a6020830184610f31565b9392505050565b6000819050602082019050919050565b600081519050919050565b6000602082019050919050565b600082825260208201905092915050565b600082825260208201905092915050565b60006110f6826111a7565b9150611101836111a7565b9250827fffffffffffffffffffffffffffffffffffffffffffffffffffffffffffffffff0382111561113657611135611224565b5b828201905092915050565b600061114c826111a7565b9150611157836111a7565b92508282101561116a57611169611224565b5b828203905092915050565b600061118082611187565b9050919050565b600073ffffffffffffffffffffffffffffffffffffffff82169050919050565b6000819050919050565b60006111bc826111a7565b915060008214156111d0576111cf611224565b5b600182039050919050565b60006111e6826111a7565b91507fffffffffffffffffffffffffffffffffffffffffffffffffffffffffffffffff82141561121957611218611224565b5b600182019050919050565b7f4e487b7100000000000000000000000000000000000000000000000000000000600052601160045260246000fd5b7f596f752063616e27742068617665206d6f7265207468616e206f6e6520626f6f60008201527f6b206f66207468652073616d6520747970650000000000000000000000000000602082015250565b7f4f776e61626c653a206e6577206f776e657220697320746865207a65726f206160008201527f6464726573730000000000000000000000000000000000000000000000000000602082015250565b7f54686973206f7065726174696f6e2063616e206265206578656375746564206f60008201527f6e6c79206279206120636c69656e740000000000000000000000000000000000602082015250565b7f596f75206d6973736564207468652072657475726e696e6720706572696f6400600082015250565b7f5468697320626f6f6b206973206f7574206f662073746f636b00000000000000600082015250565b7f4f776e61626c653a2063616c6c6572206973206e6f7420746865206f776e6572600082015250565b7f4e6f206974656d7320746f2072657475726e0000000000000000000000000000600082015250565b6113ed81611175565b81146113f857600080fd5b50565b611404816111a7565b811461140f57600080fd5b5056fea2646970667358221220b753560ff3d65f44343bdbf432d7130f04821b041253b2992b3650c78c853f5564736f6c63430008040033",
  "linkReferences": {},
  "deployedLinkReferences": {}
}