{
  "_format": "hh-sol-artifact-1",
  "contractName": "LibToken",
  "sourceName": "contracts/LibToken.sol",
  "abi": [
    {
      "inputs": [],
      "stateMutability": "nonpayable",
      "type": "constructor"
    },
    {
      "anonymous": false,
      "inputs": [
        {
          "indexed": true,
          "internalType": "address",
          "name": "owner",
          "type": "address"
        },
        {
          "indexed": true,
          "internalType": "address",
          "name": "spender",
          "type": "address"
        },
        {
          "indexed": false,
          "internalType": "uint256",
          "name": "value",
          "type": "uint256"
        }
      ],
      "name": "Approval",
      "type": "event"
    },
    {
      "anonymous": false,
      "inputs": [
        {
          "indexed": false,
          "internalType": "address",
          "name": "account",
          "type": "address"
        }
      ],
      "name": "Paused",
      "type": "event"
    },
    {
      "anonymous": false,
      "inputs": [
        {
          "indexed": true,
          "internalType": "bytes32",
          "name": "role",
          "type": "bytes32"
        },
        {
          "indexed": true,
          "internalType": "bytes32",
          "name": "previousAdminRole",
          "type": "bytes32"
        },
        {
          "indexed": true,
          "internalType": "bytes32",
          "name": "newAdminRole",
          "type": "bytes32"
        }
      ],
      "name": "RoleAdminChanged",
      "type": "event"
    },
    {
      "anonymous": false,
      "inputs": [
        {
          "indexed": true,
          "internalType": "bytes32",
          "name": "role",
          "type": "bytes32"
        },
        {
          "indexed": true,
          "internalType": "address",
          "name": "account",
          "type": "address"
        },
        {
          "indexed": true,
          "internalType": "address",
          "name": "sender",
          "type": "address"
        }
      ],
      "name": "RoleGranted",
      "type": "event"
    },
    {
      "anonymous": false,
      "inputs": [
        {
          "indexed": true,
          "internalType": "bytes32",
          "name": "role",
          "type": "bytes32"
        },
        {
          "indexed": true,
          "internalType": "address",
          "name": "account",
          "type": "address"
        },
        {
          "indexed": true,
          "internalType": "address",
          "name": "sender",
          "type": "address"
        }
      ],
      "name": "RoleRevoked",
      "type": "event"
    },
    {
      "anonymous": false,
      "inputs": [
        {
          "indexed": true,
          "internalType": "address",
          "name": "from",
          "type": "address"
        },
        {
          "indexed": true,
          "internalType": "address",
          "name": "to",
          "type": "address"
        },
        {
          "indexed": false,
          "internalType": "uint256",
          "name": "value",
          "type": "uint256"
        }
      ],
      "name": "Transfer",
      "type": "event"
    },
    {
      "anonymous": false,
      "inputs": [
        {
          "indexed": false,
          "internalType": "address",
          "name": "account",
          "type": "address"
        }
      ],
      "name": "Unpaused",
      "type": "event"
    },
    {
      "inputs": [],
      "name": "DEFAULT_ADMIN_ROLE",
      "outputs": [
        {
          "internalType": "bytes32",
          "name": "",
          "type": "bytes32"
        }
      ],
      "stateMutability": "view",
      "type": "function"
    },
    {
      "inputs": [],
      "name": "DOMAIN_SEPARATOR",
      "outputs": [
        {
          "internalType": "bytes32",
          "name": "",
          "type": "bytes32"
        }
      ],
      "stateMutability": "view",
      "type": "function"
    },
    {
      "inputs": [],
      "name": "MINTER_ROLE",
      "outputs": [
        {
          "internalType": "bytes32",
          "name": "",
          "type": "bytes32"
        }
      ],
      "stateMutability": "view",
      "type": "function"
    },
    {
      "inputs": [],
      "name": "PAUSER_ROLE",
      "outputs": [
        {
          "internalType": "bytes32",
          "name": "",
          "type": "bytes32"
        }
      ],
      "stateMutability": "view",
      "type": "function"
    },
    {
      "inputs": [],
      "name": "PERMIT_TYPEHASH",
      "outputs": [
        {
          "internalType": "bytes32",
          "name": "",
          "type": "bytes32"
        }
      ],
      "stateMutability": "view",
      "type": "function"
    },
    {
      "inputs": [
        {
          "internalType": "address",
          "name": "owner",
          "type": "address"
        },
        {
          "internalType": "address",
          "name": "spender",
          "type": "address"
        }
      ],
      "name": "allowance",
      "outputs": [
        {
          "internalType": "uint256",
          "name": "",
          "type": "uint256"
        }
      ],
      "stateMutability": "view",
      "type": "function"
    },
    {
      "inputs": [
        {
          "internalType": "address",
          "name": "spender",
          "type": "address"
        },
        {
          "internalType": "uint256",
          "name": "amount",
          "type": "uint256"
        }
      ],
      "name": "approve",
      "outputs": [
        {
          "internalType": "bool",
          "name": "",
          "type": "bool"
        }
      ],
      "stateMutability": "nonpayable",
      "type": "function"
    },
    {
      "inputs": [
        {
          "internalType": "address",
          "name": "account",
          "type": "address"
        }
      ],
      "name": "balanceOf",
      "outputs": [
        {
          "internalType": "uint256",
          "name": "",
          "type": "uint256"
        }
      ],
      "stateMutability": "view",
      "type": "function"
    },
    {
      "inputs": [
        {
          "internalType": "uint256",
          "name": "amount",
          "type": "uint256"
        }
      ],
      "name": "burn",
      "outputs": [],
      "stateMutability": "nonpayable",
      "type": "function"
    },
    {
      "inputs": [
        {
          "internalType": "address",
          "name": "account",
          "type": "address"
        },
        {
          "internalType": "uint256",
          "name": "amount",
          "type": "uint256"
        }
      ],
      "name": "burnFrom",
      "outputs": [],
      "stateMutability": "nonpayable",
      "type": "function"
    },
    {
      "inputs": [],
      "name": "decimals",
      "outputs": [
        {
          "internalType": "uint8",
          "name": "",
          "type": "uint8"
        }
      ],
      "stateMutability": "view",
      "type": "function"
    },
    {
      "inputs": [
        {
          "internalType": "address",
          "name": "spender",
          "type": "address"
        },
        {
          "internalType": "uint256",
          "name": "subtractedValue",
          "type": "uint256"
        }
      ],
      "name": "decreaseAllowance",
      "outputs": [
        {
          "internalType": "bool",
          "name": "",
          "type": "bool"
        }
      ],
      "stateMutability": "nonpayable",
      "type": "function"
    },
    {
      "inputs": [
        {
          "internalType": "bytes32",
          "name": "role",
          "type": "bytes32"
        }
      ],
      "name": "getRoleAdmin",
      "outputs": [
        {
          "internalType": "bytes32",
          "name": "",
          "type": "bytes32"
        }
      ],
      "stateMutability": "view",
      "type": "function"
    },
    {
      "inputs": [
        {
          "internalType": "bytes32",
          "name": "role",
          "type": "bytes32"
        },
        {
          "internalType": "uint256",
          "name": "index",
          "type": "uint256"
        }
      ],
      "name": "getRoleMember",
      "outputs": [
        {
          "internalType": "address",
          "name": "",
          "type": "address"
        }
      ],
      "stateMutability": "view",
      "type": "function"
    },
    {
      "inputs": [
        {
          "internalType": "bytes32",
          "name": "role",
          "type": "bytes32"
        }
      ],
      "name": "getRoleMemberCount",
      "outputs": [
        {
          "internalType": "uint256",
          "name": "",
          "type": "uint256"
        }
      ],
      "stateMutability": "view",
      "type": "function"
    },
    {
      "inputs": [
        {
          "internalType": "address",
          "name": "_addr",
          "type": "address"
        }
      ],
      "name": "getnonce",
      "outputs": [
        {
          "internalType": "uint256",
          "name": "",
          "type": "uint256"
        }
      ],
      "stateMutability": "view",
      "type": "function"
    },
    {
      "inputs": [
        {
          "internalType": "bytes32",
          "name": "role",
          "type": "bytes32"
        },
        {
          "internalType": "address",
          "name": "account",
          "type": "address"
        }
      ],
      "name": "grantRole",
      "outputs": [],
      "stateMutability": "nonpayable",
      "type": "function"
    },
    {
      "inputs": [
        {
          "internalType": "bytes32",
          "name": "role",
          "type": "bytes32"
        },
        {
          "internalType": "address",
          "name": "account",
          "type": "address"
        }
      ],
      "name": "hasRole",
      "outputs": [
        {
          "internalType": "bool",
          "name": "",
          "type": "bool"
        }
      ],
      "stateMutability": "view",
      "type": "function"
    },
    {
      "inputs": [
        {
          "internalType": "address",
          "name": "spender",
          "type": "address"
        },
        {
          "internalType": "uint256",
          "name": "addedValue",
          "type": "uint256"
        }
      ],
      "name": "increaseAllowance",
      "outputs": [
        {
          "internalType": "bool",
          "name": "",
          "type": "bool"
        }
      ],
      "stateMutability": "nonpayable",
      "type": "function"
    },
    {
      "inputs": [
        {
          "internalType": "address",
          "name": "to",
          "type": "address"
        },
        {
          "internalType": "uint256",
          "name": "amount",
          "type": "uint256"
        }
      ],
      "name": "mint",
      "outputs": [],
      "stateMutability": "nonpayable",
      "type": "function"
    },
    {
      "inputs": [],
      "name": "name",
      "outputs": [
        {
          "internalType": "string",
          "name": "",
          "type": "string"
        }
      ],
      "stateMutability": "view",
      "type": "function"
    },
    {
      "inputs": [
        {
          "internalType": "address",
          "name": "",
          "type": "address"
        }
      ],
      "name": "nonces",
      "outputs": [
        {
          "internalType": "uint256",
          "name": "",
          "type": "uint256"
        }
      ],
      "stateMutability": "view",
      "type": "function"
    },
    {
      "inputs": [],
      "name": "pause",
      "outputs": [],
      "stateMutability": "nonpayable",
      "type": "function"
    },
    {
      "inputs": [],
      "name": "paused",
      "outputs": [
        {
          "internalType": "bool",
          "name": "",
          "type": "bool"
        }
      ],
      "stateMutability": "view",
      "type": "function"
    },
    {
      "inputs": [
        {
          "internalType": "address",
          "name": "owner",
          "type": "address"
        },
        {
          "internalType": "address",
          "name": "spender",
          "type": "address"
        },
        {
          "internalType": "uint256",
          "name": "value",
          "type": "uint256"
        },
        {
          "internalType": "uint256",
          "name": "deadline",
          "type": "uint256"
        },
        {
          "internalType": "uint8",
          "name": "v",
          "type": "uint8"
        },
        {
          "internalType": "bytes32",
          "name": "r",
          "type": "bytes32"
        },
        {
          "internalType": "bytes32",
          "name": "s",
          "type": "bytes32"
        }
      ],
      "name": "permit",
      "outputs": [],
      "stateMutability": "nonpayable",
      "type": "function"
    },
    {
      "inputs": [
        {
          "internalType": "bytes32",
          "name": "role",
          "type": "bytes32"
        },
        {
          "internalType": "address",
          "name": "account",
          "type": "address"
        }
      ],
      "name": "renounceRole",
      "outputs": [],
      "stateMutability": "nonpayable",
      "type": "function"
    },
    {
      "inputs": [
        {
          "internalType": "bytes32",
          "name": "role",
          "type": "bytes32"
        },
        {
          "internalType": "address",
          "name": "account",
          "type": "address"
        }
      ],
      "name": "revokeRole",
      "outputs": [],
      "stateMutability": "nonpayable",
      "type": "function"
    },
    {
      "inputs": [
        {
          "internalType": "bytes4",
          "name": "interfaceId",
          "type": "bytes4"
        }
      ],
      "name": "supportsInterface",
      "outputs": [
        {
          "internalType": "bool",
          "name": "",
          "type": "bool"
        }
      ],
      "stateMutability": "view",
      "type": "function"
    },
    {
      "inputs": [],
      "name": "symbol",
      "outputs": [
        {
          "internalType": "string",
          "name": "",
          "type": "string"
        }
      ],
      "stateMutability": "view",
      "type": "function"
    },
    {
      "inputs": [],
      "name": "totalSupply",
      "outputs": [
        {
          "internalType": "uint256",
          "name": "",
          "type": "uint256"
        }
      ],
      "stateMutability": "view",
      "type": "function"
    },
    {
      "inputs": [
        {
          "internalType": "address",
          "name": "to",
          "type": "address"
        },
        {
          "internalType": "uint256",
          "name": "amount",
          "type": "uint256"
        }
      ],
      "name": "transfer",
      "outputs": [
        {
          "internalType": "bool",
          "name": "",
          "type": "bool"
        }
      ],
      "stateMutability": "nonpayable",
      "type": "function"
    },
    {
      "inputs": [
        {
          "internalType": "address",
          "name": "from",
          "type": "address"
        },
        {
          "internalType": "address",
          "name": "to",
          "type": "address"
        },
        {
          "internalType": "uint256",
          "name": "amount",
          "type": "uint256"
        }
      ],
      "name": "transferFrom",
      "outputs": [
        {
          "internalType": "bool",
          "name": "",
          "type": "bool"
        }
      ],
      "stateMutability": "nonpayable",
      "type": "function"
    },
    {
      "inputs": [],
      "name": "unpause",
      "outputs": [],
      "stateMutability": "nonpayable",
      "type": "function"
    }
  ],
  "bytecode": "0x60806040523480156200001157600080fd5b506040518060400160405280600381526020017f4c494200000000000000000000000000000000000000000000000000000000008152506040518060400160405280600881526020017f4c6962546f6b656e0000000000000000000000000000000000000000000000008152508181816005908051906020019062000098929190620004e0565b508060069080519060200190620000b1929190620004e0565b5050506000600760006101000a81548160ff021916908315150217905550620000f36000801b620000e76200024a60201b60201c565b6200025260201b60201c565b620001347f9f2df0fed2c77648de5860a4cc508cd0818c85b8b8a1ab4ceeef8d981c8956a6620001286200024a60201b60201c565b6200025260201b60201c565b620001757f65d7a28e3265b37a6474929f336521b332c1681b933f6cb9f3376673440d862a620001696200024a60201b60201c565b6200025260201b60201c565b50507f91ab3d17e3a50a9d89e63fd30b92be7f5336b03b287bb946787a83a9d62a27666040518060400160405280600d81526020017f4c69627261727920546f6b656e00000000000000000000000000000000000000815250805190602001206040518060400160405280600181526020017f31000000000000000000000000000000000000000000000000000000000000008152508051906020012030604051602001620002289493929190620005b2565b60405160208183030381529060405280519060200120600881905550620006a2565b600033905090565b6200026482826200026860201b60201c565b5050565b6200027f8282620002b060201b620010ab1760201c565b620002ab8160016000858152602001908152602001600020620003a160201b6200118b1790919060201c565b505050565b620002c28282620003d960201b60201c565b6200039d57600160008084815260200190815260200160002060000160008373ffffffffffffffffffffffffffffffffffffffff1673ffffffffffffffffffffffffffffffffffffffff16815260200190815260200160002060006101000a81548160ff021916908315150217905550620003426200024a60201b60201c565b73ffffffffffffffffffffffffffffffffffffffff168173ffffffffffffffffffffffffffffffffffffffff16837f2f8788117e7eff1d82e926ec794901d17c78024a50270940304540a733656f0d60405160405180910390a45b5050565b6000620003d1836000018373ffffffffffffffffffffffffffffffffffffffff1660001b6200044360201b60201c565b905092915050565b600080600084815260200190815260200160002060000160008373ffffffffffffffffffffffffffffffffffffffff1673ffffffffffffffffffffffffffffffffffffffff16815260200190815260200160002060009054906101000a900460ff16905092915050565b6000620004578383620004bd60201b60201c565b620004b2578260000182908060018154018082558091505060019003906000526020600020016000909190919091505582600001805490508360010160008481526020019081526020016000208190555060019050620004b7565b600090505b92915050565b600080836001016000848152602001908152602001600020541415905092915050565b828054620004ee906200063d565b90600052602060002090601f0160209004810192826200051257600085556200055e565b82601f106200052d57805160ff19168380011785556200055e565b828001600101855582156200055e579182015b828111156200055d57825182559160200191906001019062000540565b5b5090506200056d919062000571565b5090565b5b808211156200058c57600081600090555060010162000572565b5090565b6200059b81620005ff565b82525050565b620005ac8162000613565b82525050565b6000608082019050620005c96000830187620005a1565b620005d86020830186620005a1565b620005e76040830185620005a1565b620005f6606083018462000590565b95945050505050565b60006200060c826200061d565b9050919050565b6000819050919050565b600073ffffffffffffffffffffffffffffffffffffffff82169050919050565b600060028204905060018216806200065657607f821691505b602082108114156200066d576200066c62000673565b5b50919050565b7f4e487b7100000000000000000000000000000000000000000000000000000000600052602260045260246000fd5b6138af80620006b26000396000f3fe608060405234801561001057600080fd5b50600436106101fb5760003560e01c806370a082311161011a578063a457c2d7116100ad578063d505accf1161007c578063d505accf14610600578063d53913931461061c578063d547741f1461063a578063dd62ed3e14610656578063e63ab1e914610686576101fb565b8063a457c2d714610540578063a5fbce1f14610570578063a9059cbb146105a0578063ca15c873146105d0576101fb565b80639010d07c116100e95780639010d07c146104a457806391d14854146104d457806395d89b4114610504578063a217fddf14610522576101fb565b806370a082311461041e57806379cc67901461044e5780637ecebe001461046a5780638456cb591461049a576101fb565b8063313ce567116101925780633f4ba83a116101615780633f4ba83a146103be57806340c10f19146103c857806342966c68146103e45780635c975abb14610400576101fb565b8063313ce567146103365780633644e5151461035457806336568abe14610372578063395093511461038e576101fb565b806323b872dd116101ce57806323b872dd1461029c578063248a9ca3146102cc5780632f2ff15d146102fc57806330adf81f14610318576101fb565b806301ffc9a71461020057806306fdde0314610230578063095ea7b31461024e57806318160ddd1461027e575b600080fd5b61021a600480360381019061021591906126d9565b6106a4565b6040516102279190612ba8565b60405180910390f35b61023861071e565b6040516102459190612c84565b60405180910390f35b610268600480360381019061026391906125fc565b6107b0565b6040516102759190612ba8565b60405180910390f35b6102866107d3565b6040516102939190612f26565b60405180910390f35b6102b660048036038101906102b1919061250f565b6107dd565b6040516102c39190612ba8565b60405180910390f35b6102e660048036038101906102e19190612638565b61080c565b6040516102f39190612bc3565b60405180910390f35b61031660048036038101906103119190612661565b61082b565b005b61032061084c565b60405161032d9190612bc3565b60405180910390f35b61033e610873565b60405161034b9190612f41565b60405180910390f35b61035c61087c565b6040516103699190612bc3565b60405180910390f35b61038c60048036038101906103879190612661565b610882565b005b6103a860048036038101906103a391906125fc565b610905565b6040516103b59190612ba8565b60405180910390f35b6103c661093c565b005b6103e260048036038101906103dd91906125fc565b6109b6565b005b6103fe60048036038101906103f99190612702565b610a34565b005b610408610a48565b6040516104159190612ba8565b60405180910390f35b610438600480360381019061043391906124aa565b610a5f565b6040516104459190612f26565b60405180910390f35b610468600480360381019061046391906125fc565b610aa8565b005b610484600480360381019061047f91906124aa565b610ac8565b6040516104919190612f26565b60405180910390f35b6104a2610ae0565b005b6104be60048036038101906104b9919061269d565b610b5a565b6040516104cb9190612b8d565b60405180910390f35b6104ee60048036038101906104e99190612661565b610b89565b6040516104fb9190612ba8565b60405180910390f35b61050c610bf3565b6040516105199190612c84565b60405180910390f35b61052a610c85565b6040516105379190612bc3565b60405180910390f35b61055a600480360381019061055591906125fc565b610c8c565b6040516105679190612ba8565b60405180910390f35b61058a600480360381019061058591906124aa565b610d03565b6040516105979190612f26565b60405180910390f35b6105ba60048036038101906105b591906125fc565b610d4c565b6040516105c79190612ba8565b60405180910390f35b6105ea60048036038101906105e59190612638565b610d6f565b6040516105f79190612f26565b60405180910390f35b61061a6004803603810190610615919061255e565b610d93565b005b610624610fbb565b6040516106319190612bc3565b60405180910390f35b610654600480360381019061064f9190612661565b610fdf565b005b610670600480360381019061066b91906124d3565b611000565b60405161067d9190612f26565b60405180910390f35b61068e611087565b60405161069b9190612bc3565b60405180910390f35b60007f5a05180f000000000000000000000000000000000000000000000000000000007bffffffffffffffffffffffffffffffffffffffffffffffffffffffff1916827bffffffffffffffffffffffffffffffffffffffffffffffffffffffff191614806107175750610716826111bb565b5b9050919050565b60606005805461072d9061314f565b80601f01602080910402602001604051908101604052809291908181526020018280546107599061314f565b80156107a65780601f1061077b576101008083540402835291602001916107a6565b820191906000526020600020905b81548152906001019060200180831161078957829003601f168201915b5050505050905090565b6000806107bb611235565b90506107c881858561123d565b600191505092915050565b6000600454905090565b6000806107e8611235565b90506107f5858285611408565b610800858585611494565b60019150509392505050565b6000806000838152602001908152602001600020600101549050919050565b6108348261080c565b61083d81611718565b610847838361172c565b505050565b7f6e71edae12b1b97f4d1f60370fef10105fa2faae0126114a169c64845d6126c960001b81565b60006012905090565b60085481565b61088a611235565b73ffffffffffffffffffffffffffffffffffffffff168173ffffffffffffffffffffffffffffffffffffffff16146108f7576040517f08c379a00000000000000000000000000000000000000000000000000000000081526004016108ee90612ec6565b60405180910390fd5b6109018282611760565b5050565b600080610910611235565b90506109318185856109228589611000565b61092c9190612f83565b61123d565b600191505092915050565b61096d7f65d7a28e3265b37a6474929f336521b332c1681b933f6cb9f3376673440d862a610968611235565b610b89565b6109ac576040517f08c379a00000000000000000000000000000000000000000000000000000000081526004016109a390612d26565b60405180910390fd5b6109b4611794565b565b6109e77f9f2df0fed2c77648de5860a4cc508cd0818c85b8b8a1ab4ceeef8d981c8956a66109e2611235565b610b89565b610a26576040517f08c379a0000000000000000000000000000000000000000000000000000000008152600401610a1d90612de6565b60405180910390fd5b610a308282611836565b5050565b610a45610a3f611235565b82611997565b50565b6000600760009054906101000a900460ff16905090565b6000600260008373ffffffffffffffffffffffffffffffffffffffff1673ffffffffffffffffffffffffffffffffffffffff168152602001908152602001600020549050919050565b610aba82610ab4611235565b83611408565b610ac48282611997565b5050565b60096020528060005260406000206000915090505481565b610b117f65d7a28e3265b37a6474929f336521b332c1681b933f6cb9f3376673440d862a610b0c611235565b610b89565b610b50576040517f08c379a0000000000000000000000000000000000000000000000000000000008152600401610b4790612e86565b60405180910390fd5b610b58611b70565b565b6000610b818260016000868152602001908152602001600020611c1390919063ffffffff16565b905092915050565b600080600084815260200190815260200160002060000160008373ffffffffffffffffffffffffffffffffffffffff1673ffffffffffffffffffffffffffffffffffffffff16815260200190815260200160002060009054906101000a900460ff16905092915050565b606060068054610c029061314f565b80601f0160208091040260200160405190810160405280929190818152602001828054610c2e9061314f565b8015610c7b5780601f10610c5057610100808354040283529160200191610c7b565b820191906000526020600020905b815481529060010190602001808311610c5e57829003601f168201915b5050505050905090565b6000801b81565b600080610c97611235565b90506000610ca58286611000565b905083811015610cea576040517f08c379a0000000000000000000000000000000000000000000000000000000008152600401610ce190612ea6565b60405180910390fd5b610cf7828686840361123d565b60019250505092915050565b6000600960008373ffffffffffffffffffffffffffffffffffffffff1673ffffffffffffffffffffffffffffffffffffffff168152602001908152602001600020549050919050565b600080610d57611235565b9050610d64818585611494565b600191505092915050565b6000610d8c60016000848152602001908152602001600020611c2d565b9050919050565b42841015610dd6576040517f08c379a0000000000000000000000000000000000000000000000000000000008152600401610dcd90612dc6565b60405180910390fd5b60006008547f6e71edae12b1b97f4d1f60370fef10105fa2faae0126114a169c64845d6126c960001b898989600960008e73ffffffffffffffffffffffffffffffffffffffff1673ffffffffffffffffffffffffffffffffffffffff1681526020019081526020016000206000815480929190610e5290613181565b919050558a604051602001610e6c96959493929190612bde565b60405160208183030381529060405280519060200120604051602001610e93929190612b1c565b604051602081830303815290604052805190602001209050600060018286868660405160008152602001604052604051610ed09493929190612c3f565b6020604051602081039080840390855afa158015610ef2573d6000803e3d6000fd5b505050602060405103519050600073ffffffffffffffffffffffffffffffffffffffff168173ffffffffffffffffffffffffffffffffffffffff1614158015610f6657508873ffffffffffffffffffffffffffffffffffffffff168173ffffffffffffffffffffffffffffffffffffffff16145b610fa5576040517f08c379a0000000000000000000000000000000000000000000000000000000008152600401610f9c90612e26565b60405180910390fd5b610fb089898961123d565b505050505050505050565b7f9f2df0fed2c77648de5860a4cc508cd0818c85b8b8a1ab4ceeef8d981c8956a681565b610fe88261080c565b610ff181611718565b610ffb8383611760565b505050565b6000600360008473ffffffffffffffffffffffffffffffffffffffff1673ffffffffffffffffffffffffffffffffffffffff16815260200190815260200160002060008373ffffffffffffffffffffffffffffffffffffffff1673ffffffffffffffffffffffffffffffffffffffff16815260200190815260200160002054905092915050565b7f65d7a28e3265b37a6474929f336521b332c1681b933f6cb9f3376673440d862a81565b6110b58282610b89565b61118757600160008084815260200190815260200160002060000160008373ffffffffffffffffffffffffffffffffffffffff1673ffffffffffffffffffffffffffffffffffffffff16815260200190815260200160002060006101000a81548160ff02191690831515021790555061112c611235565b73ffffffffffffffffffffffffffffffffffffffff168173ffffffffffffffffffffffffffffffffffffffff16837f2f8788117e7eff1d82e926ec794901d17c78024a50270940304540a733656f0d60405160405180910390a45b5050565b60006111b3836000018373ffffffffffffffffffffffffffffffffffffffff1660001b611c42565b905092915050565b60007f7965db0b000000000000000000000000000000000000000000000000000000007bffffffffffffffffffffffffffffffffffffffffffffffffffffffff1916827bffffffffffffffffffffffffffffffffffffffffffffffffffffffff1916148061122e575061122d82611cb2565b5b9050919050565b600033905090565b600073ffffffffffffffffffffffffffffffffffffffff168373ffffffffffffffffffffffffffffffffffffffff1614156112ad576040517f08c379a00000000000000000000000000000000000000000000000000000000081526004016112a490612e66565b60405180910390fd5b600073ffffffffffffffffffffffffffffffffffffffff168273ffffffffffffffffffffffffffffffffffffffff16141561131d576040517f08c379a000000000000000000000000000000000000000000000000000000000815260040161131490612d46565b60405180910390fd5b80600360008573ffffffffffffffffffffffffffffffffffffffff1673ffffffffffffffffffffffffffffffffffffffff16815260200190815260200160002060008473ffffffffffffffffffffffffffffffffffffffff1673ffffffffffffffffffffffffffffffffffffffff168152602001908152602001600020819055508173ffffffffffffffffffffffffffffffffffffffff168373ffffffffffffffffffffffffffffffffffffffff167f8c5be1e5ebec7d5bd14f71427d1e84f3dd0314c0f7b2291e5b200ac8c7c3b925836040516113fb9190612f26565b60405180910390a3505050565b60006114148484611000565b90507fffffffffffffffffffffffffffffffffffffffffffffffffffffffffffffffff811461148e5781811015611480576040517f08c379a000000000000000000000000000000000000000000000000000000000815260040161147790612d66565b60405180910390fd5b61148d848484840361123d565b5b50505050565b600073ffffffffffffffffffffffffffffffffffffffff168373ffffffffffffffffffffffffffffffffffffffff161415611504576040517f08c379a00000000000000000000000000000000000000000000000000000000081526004016114fb90612e46565b60405180910390fd5b600073ffffffffffffffffffffffffffffffffffffffff168273ffffffffffffffffffffffffffffffffffffffff161415611574576040517f08c379a000000000000000000000000000000000000000000000000000000000815260040161156b90612cc6565b60405180910390fd5b61157f838383611d1c565b6000600260008573ffffffffffffffffffffffffffffffffffffffff1673ffffffffffffffffffffffffffffffffffffffff16815260200190815260200160002054905081811015611606576040517f08c379a00000000000000000000000000000000000000000000000000000000081526004016115fd90612d86565b60405180910390fd5b818103600260008673ffffffffffffffffffffffffffffffffffffffff1673ffffffffffffffffffffffffffffffffffffffff1681526020019081526020016000208190555081600260008573ffffffffffffffffffffffffffffffffffffffff1673ffffffffffffffffffffffffffffffffffffffff168152602001908152602001600020600082825461169b9190612f83565b925050819055508273ffffffffffffffffffffffffffffffffffffffff168473ffffffffffffffffffffffffffffffffffffffff167fddf252ad1be2c89b69c2b068fc378daa952ba7f163c4a11628f55a4df523b3ef846040516116ff9190612f26565b60405180910390a3611712848484611d2c565b50505050565b61172981611724611235565b611d31565b50565b61173682826110ab565b61175b816001600085815260200190815260200160002061118b90919063ffffffff16565b505050565b61176a8282611dce565b61178f8160016000858152602001908152602001600020611eaf90919063ffffffff16565b505050565b61179c610a48565b6117db576040517f08c379a00000000000000000000000000000000000000000000000000000000081526004016117d290612ce6565b60405180910390fd5b6000600760006101000a81548160ff0219169083151502179055507f5db9ee0a495bf2e6ff9c91a7834c1ba4fdd244a5e8aa4e537bd38aeae4b073aa61181f611235565b60405161182c9190612b8d565b60405180910390a1565b600073ffffffffffffffffffffffffffffffffffffffff168273ffffffffffffffffffffffffffffffffffffffff1614156118a6576040517f08c379a000000000000000000000000000000000000000000000000000000000815260040161189d90612ee6565b60405180910390fd5b6118b260008383611d1c565b80600460008282546118c49190612f83565b9250508190555080600260008473ffffffffffffffffffffffffffffffffffffffff1673ffffffffffffffffffffffffffffffffffffffff168152602001908152602001600020600082825461191a9190612f83565b925050819055508173ffffffffffffffffffffffffffffffffffffffff16600073ffffffffffffffffffffffffffffffffffffffff167fddf252ad1be2c89b69c2b068fc378daa952ba7f163c4a11628f55a4df523b3ef8360405161197f9190612f26565b60405180910390a361199360008383611d2c565b5050565b600073ffffffffffffffffffffffffffffffffffffffff168273ffffffffffffffffffffffffffffffffffffffff161415611a07576040517f08c379a00000000000000000000000000000000000000000000000000000000081526004016119fe90612e06565b60405180910390fd5b611a1382600083611d1c565b6000600260008473ffffffffffffffffffffffffffffffffffffffff1673ffffffffffffffffffffffffffffffffffffffff16815260200190815260200160002054905081811015611a9a576040517f08c379a0000000000000000000000000000000000000000000000000000000008152600401611a9190612d06565b60405180910390fd5b818103600260008573ffffffffffffffffffffffffffffffffffffffff1673ffffffffffffffffffffffffffffffffffffffff168152602001908152602001600020819055508160046000828254611af29190613033565b92505081905550600073ffffffffffffffffffffffffffffffffffffffff168373ffffffffffffffffffffffffffffffffffffffff167fddf252ad1be2c89b69c2b068fc378daa952ba7f163c4a11628f55a4df523b3ef84604051611b579190612f26565b60405180910390a3611b6b83600084611d2c565b505050565b611b78610a48565b15611bb8576040517f08c379a0000000000000000000000000000000000000000000000000000000008152600401611baf90612da6565b60405180910390fd5b6001600760006101000a81548160ff0219169083151502179055507f62e78cea01bee320cd4e420270b5ea74000d11b0c9f74754ebdbfc544b05a258611bfc611235565b604051611c099190612b8d565b60405180910390a1565b6000611c228360000183611edf565b60001c905092915050565b6000611c3b82600001611f30565b9050919050565b6000611c4e8383611f41565b611ca7578260000182908060018154018082558091505060019003906000526020600020016000909190919091505582600001805490508360010160008481526020019081526020016000208190555060019050611cac565b600090505b92915050565b60007f01ffc9a7000000000000000000000000000000000000000000000000000000007bffffffffffffffffffffffffffffffffffffffffffffffffffffffff1916827bffffffffffffffffffffffffffffffffffffffffffffffffffffffff1916149050919050565b611d27838383611f64565b505050565b505050565b611d3b8282610b89565b611dca57611d608173ffffffffffffffffffffffffffffffffffffffff166014611fbc565b611d6e8360001c6020611fbc565b604051602001611d7f929190612b53565b6040516020818303038152906040526040517f08c379a0000000000000000000000000000000000000000000000000000000008152600401611dc19190612c84565b60405180910390fd5b5050565b611dd88282610b89565b15611eab57600080600084815260200190815260200160002060000160008373ffffffffffffffffffffffffffffffffffffffff1673ffffffffffffffffffffffffffffffffffffffff16815260200190815260200160002060006101000a81548160ff021916908315150217905550611e50611235565b73ffffffffffffffffffffffffffffffffffffffff168173ffffffffffffffffffffffffffffffffffffffff16837ff6391f5c32d9c69d2a47ea670b442974b53935d1edc7fd64eb21e047a839171b60405160405180910390a45b5050565b6000611ed7836000018373ffffffffffffffffffffffffffffffffffffffff1660001b6122b6565b905092915050565b6000826000018281548110611f1d577f4e487b7100000000000000000000000000000000000000000000000000000000600052603260045260246000fd5b9060005260206000200154905092915050565b600081600001805490509050919050565b600080836001016000848152602001908152602001600020541415905092915050565b611f6f83838361243c565b611f77610a48565b15611fb7576040517f08c379a0000000000000000000000000000000000000000000000000000000008152600401611fae90612f06565b60405180910390fd5b505050565b606060006002836002611fcf9190612fd9565b611fd99190612f83565b67ffffffffffffffff811115612018577f4e487b7100000000000000000000000000000000000000000000000000000000600052604160045260246000fd5b6040519080825280601f01601f19166020018201604052801561204a5781602001600182028036833780820191505090505b5090507f3000000000000000000000000000000000000000000000000000000000000000816000815181106120a8577f4e487b7100000000000000000000000000000000000000000000000000000000600052603260045260246000fd5b60200101907effffffffffffffffffffffffffffffffffffffffffffffffffffffffffffff1916908160001a9053507f780000000000000000000000000000000000000000000000000000000000000081600181518110612132577f4e487b7100000000000000000000000000000000000000000000000000000000600052603260045260246000fd5b60200101907effffffffffffffffffffffffffffffffffffffffffffffffffffffffffffff1916908160001a905350600060018460026121729190612fd9565b61217c9190612f83565b90505b6001811115612268577f3031323334353637383961626364656600000000000000000000000000000000600f8616601081106121e4577f4e487b7100000000000000000000000000000000000000000000000000000000600052603260045260246000fd5b1a60f81b828281518110612221577f4e487b7100000000000000000000000000000000000000000000000000000000600052603260045260246000fd5b60200101907effffffffffffffffffffffffffffffffffffffffffffffffffffffffffffff1916908160001a905350600485901c94508061226190613125565b905061217f565b50600084146122ac576040517f08c379a00000000000000000000000000000000000000000000000000000000081526004016122a390612ca6565b60405180910390fd5b8091505092915050565b600080836001016000848152602001908152602001600020549050600081146124305760006001826122e89190613033565b90506000600186600001805490506123009190613033565b90508181146123bb576000866000018281548110612347577f4e487b7100000000000000000000000000000000000000000000000000000000600052603260045260246000fd5b9060005260206000200154905080876000018481548110612391577f4e487b7100000000000000000000000000000000000000000000000000000000600052603260045260246000fd5b90600052602060002001819055508387600101600083815260200190815260200160002081905550505b856000018054806123f5577f4e487b7100000000000000000000000000000000000000000000000000000000600052603160045260246000fd5b600190038181906000526020600020016000905590558560010160008681526020019081526020016000206000905560019350505050612436565b60009150505b92915050565b505050565b60008135905061245081613806565b92915050565b6000813590506124658161381d565b92915050565b60008135905061247a81613834565b92915050565b60008135905061248f8161384b565b92915050565b6000813590506124a481613862565b92915050565b6000602082840312156124bc57600080fd5b60006124ca84828501612441565b91505092915050565b600080604083850312156124e657600080fd5b60006124f485828601612441565b925050602061250585828601612441565b9150509250929050565b60008060006060848603121561252457600080fd5b600061253286828701612441565b935050602061254386828701612441565b925050604061255486828701612480565b9150509250925092565b600080600080600080600060e0888a03121561257957600080fd5b60006125878a828b01612441565b97505060206125988a828b01612441565b96505060406125a98a828b01612480565b95505060606125ba8a828b01612480565b94505060806125cb8a828b01612495565b93505060a06125dc8a828b01612456565b92505060c06125ed8a828b01612456565b91505092959891949750929550565b6000806040838503121561260f57600080fd5b600061261d85828601612441565b925050602061262e85828601612480565b9150509250929050565b60006020828403121561264a57600080fd5b600061265884828501612456565b91505092915050565b6000806040838503121561267457600080fd5b600061268285828601612456565b925050602061269385828601612441565b9150509250929050565b600080604083850312156126b057600080fd5b60006126be85828601612456565b92505060206126cf85828601612480565b9150509250929050565b6000602082840312156126eb57600080fd5b60006126f98482850161246b565b91505092915050565b60006020828403121561271457600080fd5b600061272284828501612480565b91505092915050565b61273481613067565b82525050565b61274381613079565b82525050565b61275281613085565b82525050565b61276961276482613085565b6131ca565b82525050565b600061277a82612f5c565b6127848185612f67565b93506127948185602086016130f2565b61279d81613232565b840191505092915050565b60006127b382612f5c565b6127bd8185612f78565b93506127cd8185602086016130f2565b80840191505092915050565b60006127e6602083612f67565b91506127f182613243565b602082019050919050565b6000612809602383612f67565b91506128148261326c565b604082019050919050565b600061282c601483612f67565b9150612837826132bb565b602082019050919050565b600061284f602283612f67565b915061285a826132e4565b604082019050919050565b6000612872603983612f67565b915061287d82613333565b604082019050919050565b6000612895602283612f67565b91506128a082613382565b604082019050919050565b60006128b8600283612f78565b91506128c3826133d1565b600282019050919050565b60006128db601d83612f67565b91506128e6826133fa565b602082019050919050565b60006128fe602683612f67565b915061290982613423565b604082019050919050565b6000612921601083612f67565b915061292c82613472565b602082019050919050565b6000612944601883612f67565b915061294f8261349b565b602082019050919050565b6000612967603683612f67565b9150612972826134c4565b604082019050919050565b600061298a602183612f67565b915061299582613513565b604082019050919050565b60006129ad602283612f67565b91506129b882613562565b604082019050919050565b60006129d0602583612f67565b91506129db826135b1565b604082019050919050565b60006129f3602483612f67565b91506129fe82613600565b604082019050919050565b6000612a16603783612f67565b9150612a218261364f565b604082019050919050565b6000612a39601783612f78565b9150612a448261369e565b601782019050919050565b6000612a5c602583612f67565b9150612a67826136c7565b604082019050919050565b6000612a7f601183612f78565b9150612a8a82613716565b601182019050919050565b6000612aa2602f83612f67565b9150612aad8261373f565b604082019050919050565b6000612ac5601f83612f67565b9150612ad08261378e565b602082019050919050565b6000612ae8602a83612f67565b9150612af3826137b7565b604082019050919050565b612b07816130db565b82525050565b612b16816130e5565b82525050565b6000612b27826128ab565b9150612b338285612758565b602082019150612b438284612758565b6020820191508190509392505050565b6000612b5e82612a2c565b9150612b6a82856127a8565b9150612b7582612a72565b9150612b8182846127a8565b91508190509392505050565b6000602082019050612ba2600083018461272b565b92915050565b6000602082019050612bbd600083018461273a565b92915050565b6000602082019050612bd86000830184612749565b92915050565b600060c082019050612bf36000830189612749565b612c00602083018861272b565b612c0d604083018761272b565b612c1a6060830186612afe565b612c276080830185612afe565b612c3460a0830184612afe565b979650505050505050565b6000608082019050612c546000830187612749565b612c616020830186612b0d565b612c6e6040830185612749565b612c7b6060830184612749565b95945050505050565b60006020820190508181036000830152612c9e818461276f565b905092915050565b60006020820190508181036000830152612cbf816127d9565b9050919050565b60006020820190508181036000830152612cdf816127fc565b9050919050565b60006020820190508181036000830152612cff8161281f565b9050919050565b60006020820190508181036000830152612d1f81612842565b9050919050565b60006020820190508181036000830152612d3f81612865565b9050919050565b60006020820190508181036000830152612d5f81612888565b9050919050565b60006020820190508181036000830152612d7f816128ce565b9050919050565b60006020820190508181036000830152612d9f816128f1565b9050919050565b60006020820190508181036000830152612dbf81612914565b9050919050565b60006020820190508181036000830152612ddf81612937565b9050919050565b60006020820190508181036000830152612dff8161295a565b9050919050565b60006020820190508181036000830152612e1f8161297d565b9050919050565b60006020820190508181036000830152612e3f816129a0565b9050919050565b60006020820190508181036000830152612e5f816129c3565b9050919050565b60006020820190508181036000830152612e7f816129e6565b9050919050565b60006020820190508181036000830152612e9f81612a09565b9050919050565b60006020820190508181036000830152612ebf81612a4f565b9050919050565b60006020820190508181036000830152612edf81612a95565b9050919050565b60006020820190508181036000830152612eff81612ab8565b9050919050565b60006020820190508181036000830152612f1f81612adb565b9050919050565b6000602082019050612f3b6000830184612afe565b92915050565b6000602082019050612f566000830184612b0d565b92915050565b600081519050919050565b600082825260208201905092915050565b600081905092915050565b6000612f8e826130db565b9150612f99836130db565b9250827fffffffffffffffffffffffffffffffffffffffffffffffffffffffffffffffff03821115612fce57612fcd6131d4565b5b828201905092915050565b6000612fe4826130db565b9150612fef836130db565b9250817fffffffffffffffffffffffffffffffffffffffffffffffffffffffffffffffff0483118215151615613028576130276131d4565b5b828202905092915050565b600061303e826130db565b9150613049836130db565b92508282101561305c5761305b6131d4565b5b828203905092915050565b6000613072826130bb565b9050919050565b60008115159050919050565b6000819050919050565b60007fffffffff0000000000000000000000000000000000000000000000000000000082169050919050565b600073ffffffffffffffffffffffffffffffffffffffff82169050919050565b6000819050919050565b600060ff82169050919050565b60005b838110156131105780820151818401526020810190506130f5565b8381111561311f576000848401525b50505050565b6000613130826130db565b91506000821415613144576131436131d4565b5b600182039050919050565b6000600282049050600182168061316757607f821691505b6020821081141561317b5761317a613203565b5b50919050565b600061318c826130db565b91507fffffffffffffffffffffffffffffffffffffffffffffffffffffffffffffffff8214156131bf576131be6131d4565b5b600182019050919050565b6000819050919050565b7f4e487b7100000000000000000000000000000000000000000000000000000000600052601160045260246000fd5b7f4e487b7100000000000000000000000000000000000000000000000000000000600052602260045260246000fd5b6000601f19601f8301169050919050565b7f537472696e67733a20686578206c656e67746820696e73756666696369656e74600082015250565b7f45524332303a207472616e7366657220746f20746865207a65726f206164647260008201527f6573730000000000000000000000000000000000000000000000000000000000602082015250565b7f5061757361626c653a206e6f7420706175736564000000000000000000000000600082015250565b7f45524332303a206275726e20616d6f756e7420657863656564732062616c616e60008201527f6365000000000000000000000000000000000000000000000000000000000000602082015250565b7f45524332305072657365744d696e7465725061757365723a206d75737420686160008201527f76652070617573657220726f6c6520746f20756e706175736500000000000000602082015250565b7f45524332303a20617070726f766520746f20746865207a65726f20616464726560008201527f7373000000000000000000000000000000000000000000000000000000000000602082015250565b7f1901000000000000000000000000000000000000000000000000000000000000600082015250565b7f45524332303a20696e73756666696369656e7420616c6c6f77616e6365000000600082015250565b7f45524332303a207472616e7366657220616d6f756e742065786365656473206260008201527f616c616e63650000000000000000000000000000000000000000000000000000602082015250565b7f5061757361626c653a2070617573656400000000000000000000000000000000600082015250565b7f4552433230576974685065726d69743a20455850495245440000000000000000600082015250565b7f45524332305072657365744d696e7465725061757365723a206d75737420686160008201527f7665206d696e74657220726f6c6520746f206d696e7400000000000000000000602082015250565b7f45524332303a206275726e2066726f6d20746865207a65726f2061646472657360008201527f7300000000000000000000000000000000000000000000000000000000000000602082015250565b7f4552433230576974685065726d69743a20494e56414c49445f5349474e41545560008201527f5245000000000000000000000000000000000000000000000000000000000000602082015250565b7f45524332303a207472616e736665722066726f6d20746865207a65726f20616460008201527f6472657373000000000000000000000000000000000000000000000000000000602082015250565b7f45524332303a20617070726f76652066726f6d20746865207a65726f2061646460008201527f7265737300000000000000000000000000000000000000000000000000000000602082015250565b7f45524332305072657365744d696e7465725061757365723a206d75737420686160008201527f76652070617573657220726f6c6520746f207061757365000000000000000000602082015250565b7f416363657373436f6e74726f6c3a206163636f756e7420000000000000000000600082015250565b7f45524332303a2064656372656173656420616c6c6f77616e63652062656c6f7760008201527f207a65726f000000000000000000000000000000000000000000000000000000602082015250565b7f206973206d697373696e6720726f6c6520000000000000000000000000000000600082015250565b7f416363657373436f6e74726f6c3a2063616e206f6e6c792072656e6f756e636560008201527f20726f6c657320666f722073656c660000000000000000000000000000000000602082015250565b7f45524332303a206d696e7420746f20746865207a65726f206164647265737300600082015250565b7f45524332305061757361626c653a20746f6b656e207472616e7366657220776860008201527f696c652070617573656400000000000000000000000000000000000000000000602082015250565b61380f81613067565b811461381a57600080fd5b50565b61382681613085565b811461383157600080fd5b50565b61383d8161308f565b811461384857600080fd5b50565b613854816130db565b811461385f57600080fd5b50565b61386b816130e5565b811461387657600080fd5b5056fea2646970667358221220aec9dfa2425a24a5df4155332e22d13d6475baf1eea92fddeff2cc21f48ae0a864736f6c63430008040033",
  "linkReferences": {},
  "deployedLinkReferences": {}
}